:020000040800F2
:10000000A061002085020008115A0008614600081E
:100010000D5A00089D0C00086985000800000000CA
:10002000000000000000000000000000C501000802
:10003000691E00080000000021020008617C000821
:100040009F0200089F0200089F0200089F0200080C
:100050009F0200089F0200089F0200089F020008FC
:100060009F0200089F0200089F0200089F020008EC
:10007000FD1B00089F0200080D1C00089F020008DD
:100080009F0200089F0200089F0200089F020008CC
:10009000A10C00089F0200089F0200089F020008B0
:1000A0009F020008657D00089F0200089F0200086B
:1000B0009F0200089F0200089F0200089F0200089C
:1000C0009F0200089F0200089F0200089F0200088C
:1000D0009F0200089F0200089F020008D5840008C4
:1000E0009F0200089F0200089F0200089F0200086C
:1000F0009F0200089F0200089F0200089F0200085C
:100100009F0200089F0200089F0200089F0200084B
:100110009F0200089F0200089F0200089F0200083B
:100120009F0200089F0200089F0200089F0200082B
:100130009F0200089F0200089F0200089F0200081B
:10014000BD0C00089F0200089F0200089F020008E3
:100150009F0200089F0200089F0200089F020008FB
:100160009F0200089F0200089F0200089F020008EB
:100170009F0200089F0200089F0200080000000084
:100180009F0200089F0200089F0200089F020008CB
:100190009F0200089F0200089F0200089F020008BB
:1001A00000000000000000009F020008DFF810D0EF
:1001B00000F0C6FC00480047099E0008AFF300802D
:1001C000A06100202C4B19680868B0E8F04F80F35C
:1001D0000988BFF36F8F4FF0000080F311887047DC
:1001E0000000000008480068006880F308884FF0AD
:1001F000000080F3148862B661B6BFF34F8FBFF37F
:100200006F8F00DF00BF00BF08ED00E0DFF80C00DB
:10021000016841F470010160704700BF88ED00E0A3
:10022000EFF30980BFF36F8F134B1A681EF0100FA6
:1002300008BF20ED108A20E9F04F106009B44FF09C
:10024000500080F31188BFF34F8FBFF36F8F0AF018
:100250006DFB4FF0000080F3118809BC1968086835
:10026000B0E8F04F1EF0100F08BFB0EC108A80F31A
:100270000988BFF36F8F704734000020EFF30580CB
:10028000704700000648804706480047FEE7FEE743
:10029000FEE7FEE7FEE7FEE7FEE7FEE7FEE7FEE736
:1002A000497D0008AD0100089FED1A1AF5EE000A1D
:1002B00040EE010ABDEEE00AF5EEC00A10EE100AAB
:1002C000F1EE10FA38BF401E00EE100A1349F7EEA7
:1002D000001AB8EEC00A30EEC00ADFED0F0A20EEB9
:1002E000200AFCEEC00A10EE900AC0F3080000EEEF
:1002F000900A01EB8000F8EE600A90ED011A70EEB2
:10030000600A90ED000A71EEE01A21EE800A00EE1C
:10031000810A704783F9223E0000004480B2000841
:10032000B5EEC00AF1EE10FA07D2DFED1E0AB4EE08
:10033000E00AF1EE10FAA8BF7047DFED1B0AB5EE38
:10034000C00A60EE200ABDEEE01A11EE100AF1EECE
:1003500010FA38BF401E00EE100A1549F7EE001AD9
:10036000B8EEC00A30EEC00ADFED100A60EE200AD7
:10037000BCEEE00A10EE100AC0F3080000EE100A0E
:1003800001EB8000B8EE400A90ED011A70EEC00A51
:1003900090ED000A71EEE01A21EE800A00EE810A6B
:1003A00070470000CD024CB483F9223E00000044A7
:1003B00080B200082DE9F05F0546002092469B467A
:1003C00088460646814640241BE02846414647466B
:1003D000224600F016FA53465A46C01A914110D3ED
:1003E00011461846224600F0FDF92D1A67EB010868
:1003F0004F4622460120002100F0F4F917EB0009D6
:100400004E41201EA4F10104DFDC484631462A4655
:100410004346BDE8F09F40EA01039B0703D009E093
:1004200008C9121F08C0042AFAD203E011F8013BE0
:1004300000F8013B521EF9D27047D2B201E000F839
:10044000012B491EFBD270470022F6E710B5134678
:100450000A4604461946FFF7F0FF204610BD421E2B
:1004600012F8013F002BFBD111F8013B02F8013BD0
:10047000002BF9D17047034611F8012B00F8012B2E
:10048000002AF9D1184670472DE9FE4F804681EACF
:100490000300C00F0C46009021F0004123F00045FE
:1004A000B8EB0200A94105D24046214690461C46C1
:1004B0000B46024623F00040104347D0270DC7F3F8
:1004C0000A00C3F30A510290401A019040286BDAE7
:1004D000C3F3130040F4801B0098924620B1002320
:1004E000D2EB030A63EB0B0B01985946C0F14002B3
:1004F000504600F077F906460D4650465946019A97
:1005000000F08FF910EB08006141002487EA1152D6
:1005100084EAE7731A4340D0009A62B3019A012A31
:100520004FEA075215DC001B61EB02014FF000425D
:1005300002EA0752CDE90042001C41F58011324623
:100540002B4600F0C6F903B0BDE8F08F40462146C7
:10055000F9E7001B61EB0201001C41F58013001854
:100560005B412018A2F5001747EB030140EAD57064
:10057000B6196D4111E06D084FEA360645EAC075BF
:100580004FEA0752001B61EB0201001C41F580118C
:1005900049084FEA30000019514132462B4603B05A
:1005A000BDE8F04F00F086B900980122400000231A
:1005B000D0EB020263EBE073009821464FEAE0744F
:1005C000B8EB000061EB0401E9E783F000435BE76F
:1005D00081F0004158E72DE9FE4F81EA030404F061
:1005E000004421F0004100944FF0000B23F0004341
:1005F00050EA01045ED052EA03045BD0C3F30A540C
:10060000C1F30A552C44A4F2F3340194A0FB025424
:10061000C1F3130141F48011C3F3130343F48013B6
:1006200001FB024400FB034E840A970A44EA81540A
:1006300047EA8357A4FB076802958D0A05FB0785E7
:100640004FEA932C04FB0C542705029D4FEA0658F1
:1006500047EA1637B5EB08056EEB070C870E920ECE
:1006600047EA811742EA8312A7FB0201B6EB0B01AE
:1006700064EB00042B0D43EA0C335E1844EB1C5072
:10068000DA465146E7FB0201C5F313044FEA0B3388
:1006900043EA14534FEA0432019C43EA0603A4F1EF
:1006A0000C040294009CCDE900B400F012F903B0F0
:1006B000BDE8F08F00200146F9E770B5C1F30A529A
:1006C00001F000450024C1F3130140F2FF3341F46F
:1006D00080119A4201DA002070BD40F233439A4201
:1006E000A2F2334203DC524200F08BF800E090406B
:1006F0002C43F1D0404270BD00F0004230F0004089
:100700000AD0C10D01F56071C0F3160042EA015133
:10071000C20840071143704700200146704700009F
:1007200030B5041E71F1000404DB4FF00044404278
:1007300064EB0101141E73F1000405DB1C464FF04D
:100740000043524263EB04038B4208BF824230BD38
:1007500030B5041E71F1000404DB4FF00044404248
:1007600064EB0101141E73F1000405DB1C464FF01D
:100770000043524263EB0403994208BF904230BDEC
:1007800001F0004330B421F0004150EA010206D0EC
:100790000A0DA2F56072C1F31301002A02DC30BC1D
:1007A00000207047440F44EAC104C100E01830BC87
:1007B00000EBC25000F047B830B50B4601460020B0
:1007C0002022012409E021FA02F59D4205D303FA13
:1007D00002F5491B04FA02F52844151EA2F1010294
:1007E000F1DC30BD202A04DB203A00FA02F10020BF
:1007F00070479140C2F1200320FA03F3194390405F
:100800007047202A04DB203A21FA02F000217047C9
:1008100021FA02F3D040C2F1200291400843194668
:100820007047202A06DBCB17203A41FA02F043EA50
:10083000E07306E041FA02F3D040C2F12002914099
:100840000843194670470029A8BF7047401C49005B
:1008500008BF20F00100704710B4B0FA80FC00FA25
:100860000CF050EA010404BF10BC704749B1CCF150
:10087000200421FA04F411FA0CF118BF01212143DC
:100880000843A3EB0C01CB1D4FEA00614FEA102097
:1008900042BF002010BC704700EBC3501044002939
:1008A000A4BF10BC7047401C490008BF20F00100E5
:1008B00010BC704710B5141E73F1000408DA401C18
:1008C00041F1000192185B411A4301D120F001006F
:1008D00010BD2DE9F04D92469B4611B1B1FA81F25F
:1008E00002E0B0FA80F220329046FFF77BFF044628
:1008F0000F4640EA0A0041EA0B0153465A460843B4
:1009000013D0114653EA010019D0C8F140025046F5
:10091000FFF777FF05460E46504659464246FFF719
:1009200061FF084305D0012004E020463946BDE8B8
:10093000F08D0020054346EAE0762C4337430A98C1
:100940006305E40AA0EB08000022FD0A44EA4754CC
:100950000A3002D500200146E9E701051019694176
:10096000DDE9084500196941BDE8F04DA2E72DE930
:10097000F04D81EA030404F0004B21F000451446D9
:100980004FF0000A23F0004150EA050220D054EA5B
:1009900001021DD0C5F30A570246C5F31303C1F384
:1009A0001300C1F30A5640F4801543F48013A7EBFB
:1009B0000608101BD64608F2FD3873EB050002D37B
:1009C00008F1010801E092185B41B8F1000F03DA69
:1009D00000200146BDE8F08D00204FF4801106464E
:1009E00084460EE0171B73EB050705D3121B63EB60
:1009F000050306434CEA010C49084FEA30009218FF
:100A00005B4150EA0107EDD152EA030012D082EABD
:100A1000040083EA0501084305D0101BAB4106D250
:100A20000122002306E000224FF0004302E06FF0B5
:100A3000010253101AEB06004CEB085110EB0A00B0
:100A400041EB0B01BDE8F04DFFF734BF70B521F06D
:100A5000004303430CD0C1F30A550024D5EB040531
:100A600064EB0403D617AD1AB34102DB0020014644
:100A700070BD201841EB025170BD2DE9F04D0023EF
:100A80001A461B1A8A4103DB00200146BDE8F08D9F
:100A9000C1F30A52C1F3130141F480154FF0000B6A
:100AA000D10702D100186D41521E0027044640F2C2
:100AB000FF11384601EB620A3E468046024600209E
:100AC0004FF48011FFF79DFEC2197141BB1846EB30
:100AD0000100B4EB030C75EB000C04D3E41A65EBD6
:100AE000000517460E46241908F101006D418046A5
:100AF0003428E3DDF91946EB0600091BA84103D2AF
:100B00004FF0FF32134601E0002213461BEB0700B3
:100B100046EB0A51BDE8F04DFFF7CCBE0EB5C10F54
:100B200080EAE0700844CA07002140F233438DE8B0
:100B30000E000A460B46FFF7CCFE03B000BD0000D6
:100B4000064C074D06E0E06840F0010394E807001A
:100B500098471034AC42F6D3FFF72CFB10BC0008CA
:100B600030BC000870B58C1810F8015B15F0070355
:100B700001D110F8013B2A1106D110F8012B03E036
:100B800010F8016B01F8016B5B1EF9D12B0705D43E
:100B90000023521E0DD401F8013BFAE710F8013B87
:100BA000CB1A921C03E013F8015B01F8015B521EA3
:100BB000F9D5A142D8D3002070BD00BF012009F0B3
:100BC00054F9FBE710B504461B480078401C1A494D
:100BD000087008460078642828DA94ED000ADFEDF2
:100BE000170AB4EEE00AF1EE10FA0BDD94ED000AFC
:100BF000DFED130A30EE600A84ED000A2046FFF7AD
:100C0000E1FF13E094ED000ADFED0E0AB4EEE00A16
:100C1000F1EE10FA0AD294ED000ADFED090A30EE87
:100C2000200A84ED000A2046FFF7CCFF0248007836
:100C3000401E0149087010BDF4010020000034433B
:100C40000000B443000034C370B505460C460026CE
:100C50000DB1022C00D870BDA11E0648028828469E
:100C600001F0DEFB0646A01E2E54310A601E2954F8
:100C700000BFF0E72601002070B505460C460026AF
:100C80000DB1022C00D870BD611EFF22284601F074
:100C9000E1FB0646601E2E5400BFF4E700BFFEE7EE
:100CA00010B5054802F096F8012001F0F7F8024867
:100CB00001F0FAFD10BD0000E404002010B5054865
:100CC00002F018F9022001F0E9F8024801F0ECFD09
:100CD00010BD00000C05002070B504460D46002034
:100CE000206160616062A0610120E06120620020FB
:100CF00020606060A060E0602146284601F084FC2E
:100D000070BD000070B504460D46681EC6B206EB05
:100D1000460101EB0611084A02EB81002146FFF76C
:100D2000DBFF204602F04DF92068406940F00200E8
:100D30002168486170BD0000E4430020F8B5064614
:100D40000C4617461D4609480460446000200749C8
:100D50008860C860084605616B463A46304601F037
:100D6000A7FB08B10020F8BD0120FCE744460020A5
:100D70002DE9F04106460C4617461D46074804601B
:100D800044600561002005498860C8600875044B0F
:100D90003A46304601F08CFBBDE8F0811046002059
:100DA000B40000202DE9F04180460C4615461E4651
:100DB000069F200A0E4908704C70280A8870CD7072
:100DC000300A08714E71380A8871CF714FF4007083
:100DD0000849086048600820086100208860C860F1
:100DE0000875054B024A404601F062FBBDE8F08100
:100DF000A400002010460020B40000202DE9F0419E
:100E000080460C4615461E46069F200A0E4908706D
:100E10004C70280A8870CD70300A08714E71380AFB
:100E20008871CF7140F2FF100849086048600820BF
:100E3000086100208860C8600875054B024A40467A
:100E400001F036FBBDE8F081A40000201046002030
:100E5000B40000200248406800EE100A704700000D
:100E60006948002001480089704700006948002057
:100E70000148008B704700004D48002070B58AB0D3
:100E800002460B46002006900790089009903148D2
:100E9000008B4FF6FF71884205D12F4840682E49DC
:100EA00088600AB070BD00202B49886048600290BD
:100EB00003900490059000900190002400BF0DE085
:100EC00032F91010002901DB0D4600E04D42224EA0
:100ED00076683544204E7560411CC8B29842EFDBFD
:100EE0001D4840681C498860002013E032F910104A
:100EF00000EE101AF8EEC00A174991ED010AB8EE9B
:100F0000C00A80EE801A06A901EB800181ED001A6B
:100F1000411CC8B29842E9DB00F020F8002014E040
:100F20000D4991ED020AB8EEC00A06A901EB800155
:100F3000D1ED000A20EE200ABDEEC00A10EE101A14
:100F400009B222F81010411CC8B29842E8DB00BF79
:100F5000A7E700004D480020685D00201C4800897C
:100F600000B21C4908800846B0F90000C0F13C00FE
:100F700000B2194908809FED190A164880ED030A4E
:100F8000B0F9000000EE100AB8EEC00A1448D0ED27
:100F9000000A80EE201A0F4880ED031A90ED030A34
:100FA00020EE000A80ED030A0846B0F90000002890
:100FB0000CDD084890ED010AB8EEC00AD0ED030A36
:100FC00020EE200ABDEEC00A80ED020A7047000044
:100FD00069480020685D00206002002000000000D9
:100FE0006402002010B500F031F900F001F810BDE6
:100FF00010B5A520404908703320A1F80100002059
:10100000C8703E480A680260097901710521FFF73E
:1010100033FE40F201303849A1F8050008F018FE0F
:101020004FF488703449A1F80700354801783248F8
:10103000A0F80910334801882F48A0F80B1014209D
:101040002D4948730846008A20F470708030088269
:101050000846007C20F00700401C08740846007C0D
:1010600020F03800383008740846407C20F03C00FE
:101070002030487419212048B0F8110061F38E1017
:101080001D49A1F811000C211B48408A61F3CF10C3
:10109000194948820846808A6FF30900801C8882BB
:1010A0000A211548B0F8150061F38C001249A1F827
:1010B00015004FF42F711048C08A61F34F100E498C
:1010C000C88211A10C481C30FFF7D5F935220A4916
:1010D000491D0A48401DFFF79EF93C210748FFF7CC
:1010E000B3FD3C200C490870FF23084602780349F1
:1010F0000A4803F048FA10BD524A00201554002057
:101100004D4800200C0100204341505F454E4745AB
:101110005247593A000000003401002074050020B5
:1011200070B5A520434908703320A1F801000020C4
:10113000C87041480A680260097901710521FFF70A
:101140009BFD40F201303B49A1F8050008F080FD0D
:101150004FF488703749A1F80700384801783548BE
:10116000A0F80910364801883248A0F80B10132067
:10117000304948730846008A20F470708030088235
:101180000846007C20F00700801C08740846007C9C
:1011900020F03800383008740846407C20F03C00CD
:1011A0001430487419212348B0F8110061F38E10EF
:1011B0002049A1F8110004211E48408A61F3CF1094
:1011C0001C4948820846808A6FF30900801C888287
:1011D000FA211848B0F8150061F38C001549A1F800
:1011E000150040F28A211348C08A61F34F1011495B
:1011F000C88201F041F9054629460E481C3008F026
:10120000E3FD10A10B481C30FFF729F935220949ED
:10121000491D0948401DFFF7FEF83C210648FFF72D
:1012200013FD3C24FF2322460349074803F0ABF992
:1012300070BD0000164A0020155400204D480020C3
:101240000C010020250000007405002010B5A52029
:10125000444908703320A1F801000020C8704248BA
:101260000A680260097901710521FFF705FD40F266
:1012700001303C49A1F8050008F0EAFC4FF4887001
:101280003849A1F80700394801783648A0F8091014
:10129000374801883348A0F80B10132031494873B0
:1012A0000846008A20F47070803008820846007C6E
:1012B00020F00700401C08740846007C20F038002D
:1012C000383008740846407C20F03C0014304874E4
:1012D00019212448B0F8110061F38E102149A1F8BA
:1012E000110004211F48408A61F3CF101D49488234
:1012F0000846808A6FF30900801C8882FA21194809
:10130000B0F8150061F38C001649A1F8150040F201
:101310008A211448C08A61F34F101249C88201F033
:10132000ABF8044621460F481C3008F04DFD11A1D2
:101330000C481C30FFF793F835220A49491D0A482A
:10134000401DFFF768F83C210748FFF77DFC3C2073
:1013500009490870FF23084602780349074803F04B
:1013600012F910BD164A0020155400204D480020E7
:101370000C0100202500000033010020740500202E
:1013800010B5A520C84908705120A1F8010000201F
:10139000C870C6480A680260097901710521FFF723
:1013A0006BFC40F20130C049A1F8050008F050FC88
:1013B00040F20310BC49A1F80700BD480178BA48C3
:1013C000A0F80910BB480188B748A0F80B1001200D
:1013D000B54948730846007C20F03801B2480174D2
:1013E000007C20F00700401CAF4908740846008AC2
:1013F00020F4707000F5A07008820846407C20F050
:101400003C00083048740021A748B0F8110061F38F
:101410008E10A549A1F811000021A348408A61F36C
:10142000CF10A14948820846808A6FF30900C01C8A
:1014300088824FF4FF719C48B0F8150061F38C006E
:101440009949A1F8150000219748C08A61F34F100F
:101450009549C8820846008B810A89029248018317
:101460004FF41671B0F8190061F38C008E49A1F8A1
:101470001900C8218C48408B61F34F108A4948837A
:10148000022189480177C07F20F038018648C17762
:10149000C07F20F00701491C8348C177B0F81F00C6
:1014A00020F4707101F5A0717F48A0F81F1090F82A
:1014B000200020F03C0108317B4880F820100022F9
:1014C000018C62F38E110184B0F8211062F3CF1108
:1014D000A0F82110B0F82300810A8902C91C7248C3
:1014E000A0F8231040F28C52818C62F38C0181842D
:1014F0000022B0F8251062F34F11A0F82510B0F8C3
:101500002700810A89026848A0F8271040F2325269
:10151000018D62F38C010185C822B0F8291062F3B5
:101520004F11A0F82910032180F82B1090F82E00FD
:1015300020F038015C4880F82E1090F82E0020F042
:101540000701491C584880F82E10C08D20F4707196
:1015500001F5A0715448C18590F82F0020F03C019E
:101560000831514880F82F100022B0F82F1062F394
:101570008E11A0F82F10018E62F3CF110186408EDC
:10158000810A8902C91C484841864FF41672B0F896
:10159000331062F38C01A0F83310C822818E62F3FD
:1015A0004F118186C08E810A89023F48C186920010
:1015B000B0F8371062F38C01A0F83710C822018F01
:1015C00062F34F110187042180F83A1090F83D0032
:1015D00020F03801344880F83D1090F83D0020F0AC
:1015E0000701491C304880F83D10B0F83D0020F458
:1015F000707101F5A0712C48A0F83D1090F83E00E4
:1016000020F03C010831284880F83E100022C18FAC
:1016100062F38E11C187B0F83F1062F3CF11A0F8CA
:101620003F10B0F84100810A8902C91C1E48A0F889
:10163000411040F23252B0F8421062F38C01A0F82F
:101640004210C822B0F8431062F34F11A0F84310C3
:10165000B0F84500810A89021348A0F8451040F20D
:101660006A42B0F8461062F38C01A0F84610C82216
:10167000B0F8471062F34F11A0F847105322411DF4
:101680000A48401DFEF7C7FE5A210848FFF7DCFA5A
:101690005A2009490870FF23084602780349074881
:1016A00002F071FF10BD0000B44C00204155002035
:1016B0004D4800200C0100203B0100207405002053
:1016C00010B52DED0C8B0446B0EE408AF0EE608A2A
:1016D000B0EE419AF0EE619A18EE100AFFF70CF89E
:1016E00041EC1D0BB0EE4D0AF0EE6D0A07F080FAEA
:1016F000B0EE40BAF0EE60BA94ED000A10EE101AA7
:101700000846FEF7F9FF41EC1D0BB0EE4D0AF0EE76
:101710006D0A07F06DFAB0EE40CAF0EE60CA53EC05
:101720001B2B51EC1C0BFEF750FF41EC1A0B9FEDED
:101730004F0B53EC102BFEF7F3FF1FD294ED000A72
:1017400010EE101A0846FEF7D7FF41EC1B0BB0EE67
:101750004B0AF0EE6B0A07F04BFAB0EE40AAF0EE3F
:1017600060AA9FED440B53EC102B51EC1A0BFEF7C3
:10177000EFFF03D228EE890AF0EE408A18EE100A35
:10178000FEF7BAFF41EC1D0BB0EE4D0AF0EE6D0A0C
:1017900007F02EFAB0EE40BAF0EE60BA94ED000A0F
:1017A00010EE101A0846FEF7A7FF41EC1D0BB0EE35
:1017B0004D0AF0EE6D0A07F01BFAB0EE40CAF0EEEB
:1017C00060CA53EC1B2B51EC1C0BFEF7FEFE41ECE8
:1017D0001A0B9FED260B53EC102BFEF7B9FF03D22B
:1017E00028EEA90AF0EE408A18EE900AFEF784FF70
:1017F00041EC1A0B94ED000A30EE480A10EE101A74
:101800000846FEF779FF41EC1C0BB0EE4C0AF0EEF7
:101810006C0A07F0EDF9B0EE40BAF0EE60BA53ECA6
:101820001A2B51EC1B0BFEF77BFF02D284ED008AD2
:1018300019E094ED000AB4EEC80AF1EE10FA05DDE5
:1018400094ED000A30EE680A84ED000A94ED000A77
:10185000B4EEC80AF1EE10FA05D294ED000A30EEAB
:10186000280A84ED000ABDEC0C8B10BD00000000BE
:1018700000000000000000000000244010B500201F
:10188000444908604FE043490968C1EB0111424AED
:1018900002EB810044F6206247F248119FED3F1AA7
:1018A000DFED3E0AB3EE010A04F0E4F839490968B5
:1018B000C1EB01113A4A02EB810044F6206247F283
:1018C00048119FED361ADFED350A9FED360A04F018
:1018D000D1F830490968C1EB0111334A02EB8100AC
:1018E0004FF4FA5251009FED2D1ADFED2C0A9FEDB7
:1018F0002F0A04F0BFF827490968C1EBC1012C4A3F
:1019000002EBC10041F288324FF47A519FED231A65
:10191000F6EE000AB2EE040A02F0CCFE1D480068A2
:10192000401C1C4908601B4800680428ABDB0020F1
:101930002DE0204901EB800191ED000AC0EBC001D0
:101940001D4A02EB810181ED030AC0EBC00102EBED
:10195000810181ED000A0021C0EBC002164B03EBB0
:1019600082021161C0EBC00203EB82025161C0EB45
:10197000C00203EB820291619FED080AC0EBC00137
:101980001A4602EB810181ED010A411CC8B204280C
:10199000CFDB10BD6C010020085B002000000000C0
:1019A000F85B00200000C842185700203333B33FD3
:1019B000085800207C010020585A002010B54FF430
:1019C000007000F053FA012804D138480068401C28
:1019D000364908600020364908603CE03548344903
:1019E000096800EB411090ED060AB8EEC00ADFED81
:1019F000320A80EE201A31482D49096800EB810037
:101A000080ED001A2B482A49096800EB4110B0F913
:101A1000000000EE100AB8EEC00A294824490968FF
:101A200000EB810080ED000A26482149096800EB9F
:101A30004110B0F9000000EE100AB8EEC00A2248CA
:101A40001B49096800EB810080ED000A1848006816
:101A5000401C17490860164800680428BEDB1B4874
:101A6000807B012802D106F0EDF802E0002006F0AC
:101A7000E9F81648C08806280FD01548D0ED021A9C
:101A8000B0EE611AD0ED011AF0EE610AD0ED001A45
:101A9000B0EE610A04F03CF807E09FED0E1ADFEDAE
:101AA0000D0A9FED0C0A04F033F810BDAC010020C4
:101AB0006C010020104500208805B641C85A00205E
:101AC000D85A002090450020E85A00207C4400208D
:101AD0005C5D00200000000007484088012803DA10
:101AE00001200549087102E0002003490871002027
:101AF0000149488070470000CC000020B0F9003058
:101B00008B4201DC018004E0B0F90030934200DB3D
:101B10000280704700BF3348D0ED010AB0EE600A82
:101B2000012000F04DF93048D0ED000AB0EE600A17
:101B3000022000F045F92B48D0ED080AB0EE600A0B
:101B4000032000F03DF92848D0ED010AB0EE600A0C
:101B5000042000F035F92348D0ED0F0AB0EE600AFA
:101B6000052000F02DF92048D0ED020AB0EE600A01
:101B7000062000F025F91B48D0ED160AB0EE600AE9
:101B8000072000F01DF91848D0ED030AB0EE600AF6
:101B9000082000F015F9082000F0C6F81349087075
:101BA00000201349087012E000BF1248006800F0DE
:101BB00040000028F9D010480D490978405C0D49D3
:101BC000091D08600A480078401C09490870084847
:101BD0000078064909788842E6DB322008F045F9AA
:101BE00099E70000585A0020C85A00201D00002024
:101BF0001C00002000140140D447002010B502480A
:101C000001F02AFA10BD0000F405002010B50248CA
:101C100001F022FA10BD00005406002001460878A9
:101C200010381823B0FBF3F20848805CC865032A1B
:101C300005D908686FF30900001D886503E008688E
:101C40006FF309008865886D704700005CAF00087D
:101C5000014600208A6A8B69CBB932B1012A0DD0C6
:101C6000022A03D0032A10D10EE000BFCB6A03F092
:101C70008073B3F1807F00D1012007E0CB6AB3F11C
:101C8000C07F00D1012001E000E000BF34E08B699B
:101C9000B3F5005F1AD132B1012A07D0022A03D06E
:101CA000032A11D10AE000BF01200EE0CB6A03F045
:101CB0008073B3F1807F00D1012006E0CB6AB3F1DD
:101CC000C07F00D1012000E000BF15E032B1012A41
:101CD00005D0022A04D0032A0CD103E000BF00BFC4
:101CE000012008E0CB6A03F08073B3F1807F00D15C
:101CF000012000E000BF00BF704730B504682468D1
:101D000024F4802405682C60046863608468402C97
:101D100004D10468A2600468E16003E00468A16083
:101D20000468E26030BD000001460A2900DC09B900
:101D3000002070472420214A10700B293CD2DFE894
:101D400001F03B060B10151A1F24292F3500052022
:101D50001A4A50710620ECE70920184A50720A20EE
:101D6000E7E70D20154A50730E20E2E71120134AD1
:101D700050741220DDE71520104A50751620D8E760
:101D800019200E4A50761A20D3E71D200B4A5077AF
:101D90001E20CEE72120094A82F821002220C8E730
:101DA0002520064A82F825002620C2E72920034A7A
:101DB00082F829002A20BCE70020BAE7D447002097
:101DC00011B52DED020B04460A2C00DC04B91EBD32
:101DD0000B2C43D2DFE804F042060C12181E242A12
:101DE00030363C0001221F49684600F023FA35E0F6
:101DF00005221C49684600F01DFA2FE00922194906
:101E0000684600F017FA29E00D221649684600F0EE
:101E100011FA23E011221349684600F00BFA1DE085
:101E200015221049684600F005FA17E019220D49FD
:101E3000684600F0FFF911E01D220A49684600F0EB
:101E4000F9F90BE021220749684600F0F3F905E0B3
:101E500025220449684600F0EDF900BF00BF00BF2D
:101E6000B5E70000D4470020704700000146B1F5F7
:101E7000804F08D9084800680840884201D00120F6
:101E800070470020FCE704480068084008B90120BA
:101E9000F6E70020F4E7000088020020034931F84B
:101EA0001010491C014A22F8101070477C5D002078
:101EB00000B500231DE0104A32F813100F4A32F823
:101EC000130000F0A5FA38B1012098400C490968C8
:101ED00081430B48016006E00120984008490968E9
:101EE0000843074908600020044921F81300581CE2
:101EF000C3B20F2BDFDB00BD680200207C5D002039
:101F0000880200207047000010B5A520C349087062
:101F10005120A1F801000020C870C1480A68026081
:101F2000097901710521FEF7A7FE40F20130BB4996
:101F3000A1F8050007F08CFE40F20310B749A1F8A4
:101F40000700B8480178B548A0F80910B6480188DC
:101F5000B248A0F80B1009218173007C20F03801F1
:101F6000AE480174007C20F00700401CAB490874A7
:101F70000846008A20F47071A8480182407C20F055
:101F80003C000830A54948740021A448B0F811006D
:101F900061F38E10A149A1F8110000219F48408AE9
:101FA00061F3CF109D4948820846808A6FF309008B
:101FB000401C88824FF461719848B0F8150061F3B5
:101FC0008C009649A1F815004FF4C8719348C08A57
:101FD00061F34F109149C8820846008B810A89023B
:101FE0008E4801834FF47F71B0F8190061F38C00C3
:101FF0008A49A1F819004FF4C8718848408B61F3F1
:102000004F10864948830A2184484177C07F20F0D9
:1020100038018248C177C07F20F00701491C7F4802
:10202000C177B0F81F0020F470717C48A0F81F1031
:1020300090F8200020F03C010831784880F820100A
:102040000022018C62F38E110184B0F8211062F33A
:10205000CF11A0F82110B0F82300810A8902491C91
:102060006E48A0F823104FF46672818C62F38C01E5
:1020700081844FF4B472B0F8251062F34F11A0F8C8
:102080002510B0F82700810A89026448A0F82710BB
:102090004FF47A72018D62F38C0101854FF4B472B2
:1020A000B0F8291062F34F11A0F829100B2180F825
:1020B0002C1090F82E0020F03801584880F82E108F
:1020C00090F82E0020F00701491C544880F82E108B
:1020D000C08D20F470715148C18590F82F0020F018
:1020E0003C0108314D4880F82F100022B0F82F1025
:1020F00062F38E11A0F82F10018E62F3CF110186CA
:10210000408E810A8902491C444841864FF46B7213
:10211000B0F8331062F38C01A0F833104FF49B72C7
:10212000818E62F34F118186C08E810A89023B48FD
:10213000C1864FF47572B0F8371062F38C01A0F8C5
:1021400037104FF49B72018F62F34F1101870A2100
:1021500080F82C1090F82E0020F038012F4880F8DD
:102160002E1090F82E0020F00701491C2B4880F813
:102170002E10C08D20F470712848C18590F82F0072
:1021800020F03C010831254880F82F100022B0F8DB
:102190002F1062F38E11A0F82F10018E62F3CF1171
:1021A0000186408E810A8902491C1C48418640F202
:1021B000B132B0F8331062F38C01A0F833104FF451
:1021C0008C72818E62F34F118186C08E810A8902E2
:1021D0001248C18640F2CF32B0F8371062F38C015A
:1021E000A0F837104FF48C72018F62F34F11018702
:1021F0005322411D0A48401DFEF70DF95A21084897
:10220000FEF722FD5A2009490870FF23084602788C
:102210000349074802F0B7F910BD00003349002018
:10222000FF5000204D4800200C010020320100200A
:102230007405002030B503461C788C545D78541C1E
:102240000D559D78941C0D55DD78D41C0D5530BD71
:1022500000B50146F0EE401AB0EE602AC1ED001A5A
:1022600081ED012A91ED000AD1ED010A30EE600AFC
:1022700081ED020A91ED020AD1ED030A30EE600A07
:10228000D1ED050A20EE200A81ED080A91ED060A3B
:10229000D1ED020A20EE200A81ED090A91ED020A31
:1022A000D1ED030AB0EE001A01EE600AD1ED040A86
:1022B00030EE200AD1ED070A20EE200A81ED0A0A4D
:1022C000D1ED0D0AF8EE600AB0EE600A01F12400CB
:1022D00007F09FFC91ED080AD1ED090A30EE200AC3
:1022E000D1ED0A0A30EE200AD1ED0B0A30EE200AB9
:1022F00081ED0B0AD1ED0C0AF8EE600AB0EE600A2F
:1023000001F12C0007F085FC91ED030A81ED040A30
:1023100091ED020A81ED030A91ED0B0A00BD000068
:1023200000B50146F0EE401AB0EE602AC1ED001A89
:1023300081ED012A91ED000AD1ED010A30EE600A2B
:1023400081ED020A91ED020AF1EE040AB4EEE00A10
:10235000F1EE10FA0FD291ED020AF9EE040AB4EE92
:10236000E00AF1EE10FA06DD9FED280A81ED0B0A76
:1023700091ED0B0A00BD91ED040AD1ED020A30EE99
:10238000200A81ED040A91ED050AD1ED020A20EE42
:10239000200A81ED080A91ED060AD1ED040A20EE2B
:1023A000200A81ED090A91ED020AD1ED030A30EE0F
:1023B000600AD1ED070A20EE200A81ED0A0AD1ED6C
:1023C0000D0AF8EE600AB0EE600A01F1240007F091
:1023D00020FC91ED080AD1ED090A30EE200AD1ED7A
:1023E0000A0A30EE200A81ED0B0AD1ED0C0AF8EE54
:1023F000600AB0EE600A01F12C0007F00AFC91EDD2
:10240000020A81ED030A91ED0B0AB3E70000000018
:1024100002468A4201DA012070470020FCE70000F2
:1024200030B5034613B94FF6FF7030BD09E013F81D
:10243000014B82EA0400C0B2054D35F8100080EA75
:102440002222081EA1F10101F1D11046EDE70000A2
:102450007EB0000830B5034605E013F8010B80EAB2
:1024600002040448025D081EA1F10101F5D11046E5
:1024700030BD00007DAF0008014880797047000042
:102480004801002001480089704700004D480020A5
:102490000148C088704700004D480020014840892D
:1024A000704700006948002010B502F0A1FB10BD84
:1024B000F0B504460D461E4694F8207020688368E7
:1024C000A86800B900E000BF012F01D0022F7CD125
:1024D00003F0806030B903F0006018B903F0805059
:1024E000002873D0C3F30161022905D9606A40F462
:1024F000000060620120F0BD012088403060A868C3
:1025000060B9B5F800C0E86840EA4C5C206800F5A6
:10251000C07000EB0110C0F800C00FE0D5E901C0A9
:1025200040EACC00D5F80CC040EA0C00D4F800C05A
:102530000CF5C07C0CEB011CCCF80000D5F810C0E9
:10254000206800F5C07000EB0110C0F804C0287DC1
:1025500001280ED1206800F5C07000EB0110406822
:1025600040F4807C206800F5C07000EB0110C0F8DA
:1025700004C0D079000692F806C040EA0C4092F8F8
:1025800005C040EA0C2C10794CEA000C206800F5DC
:10259000C07000EB0110C0F80CC0D078000692F8B3
:1025A00002C040EA0C4092F801C040EA0C2092F8C8
:1025B00000C040EA0C00D4F800C00CF5C07C0CEB65
:1025C000011CCCF80800206801E016E00FE000F5DF
:1025D000C07000EB0110006840F0010C206800F5AD
:1025E000C07000EB0110C0F800C0002083E7606AF3
:1025F00040F40010606201207DE7606A40F48020B2
:102600006062012077E70000F0B504460A462168C1
:1026100094F82050012D01D0022D7ED1424901F5C0
:102620000071086840F001000860086820F47C50E0
:1026300008600868566A40EA06200860107D00F0CD
:102640001F06012000FA06F3C8699843C861A1F586
:102650000071D069C8B9D1F80C029843C1F80C02D6
:10266000908880B2968940EA064601F51070576955
:1026700040F83760108880B2168940EA064601F5B6
:102680001070576900EBC7004660D069012819D166
:10269000D1F80C021843C1F80C02908880B2168859
:1026A00040EA064601F51070576940F83760908996
:1026B00080B2168940EA064601F51070576900EBB2
:1026C000C7004660906928B9D1F804029843C1F860
:1026D000040204E0D1F804021843C1F804021069AE
:1026E00028B9D1F814029843C1F8140204E0D1F8D3
:1026F00014021843C1F81402106A012804D1D1F859
:102700001C021843C1F81C02D1F8000220F001009D
:10271000C1F800020020F0BDFFE7606A40F48020AD
:1027200060620120F7E7000000640040704770B568
:10273000044694F82050012D01D0022D7DD151B9CD
:102740002068C06800F0030080B9606A40F400109F
:102750006062012070BD2068006900F0030028B9A4
:10276000606A40F4001060620120F3E7206800F521
:10277000D87000EB0110006800F0040090609068D1
:1027800040B9206800F5D87000EB01100068400DDA
:10279000106007E0206800F5D87000EB01100068B9
:1027A000C0085060206800F5D87000EB0110006888
:1027B00000F00200D060206800F5D87000EB011036
:1027C000406800F00F001061206800F5D87000EB41
:1027D0000110406800F47F40000A9061206800F515
:1027E000D87000EB01104068000C5061206800F5C3
:1027F000D87000EB011080681870206800F5D87060
:1028000000EB0110806800F47F40000A58702068D7
:1028100000F5D87000EB0110806800F47F00000C18
:102820009870206800F5D87000EB01108068000EE9
:10283000D870206800F5D87000E02FE000EB0110A0
:10284000C0681871206800F5D87000EB0110C068EE
:1028500000F47F40000A5871206800F5D87000EB42
:102860000110C06800F47F00000C9871206800F52A
:10287000D87000EB0110C068000ED87131B9206823
:10288000C06840F020002668F06005E0206800691C
:1028900040F020002668306100205BE7606A40F469
:1028A00080206062012055E72DE9F05F0446002595
:1028B000206846692068D0F80490206887682068FE
:1028C000D0F80CA02068D0F810B02068D0F818809C
:1028D00006F00100002855D007F00100C0B101202A
:1028E0002168886007F0020018B1204600F099FBCB
:1028F0000EE007F0040010B145F4006508E007F0B1
:10290000080010B145F4805502E0204600F088FB35
:1029100007F48070C8B14FF480702168886007F4B4
:10292000007018B1204600F07EFB0EE007F48060D6
:1029300010B145F4005508E007F4006010B145F40B
:10294000804502E0204600F06DFB07F48030C8B1FE
:102950004FF480302168886007F4003018B12046B9
:1029600000F063FB0EE007F4802010B145F4004551
:1029700008E007F4002010B145F4803502E020465D
:1029800000F052FB06F0080038B10AF0100020B148
:1029900045F4007510202168C86006F0040040B1BD
:1029A0000AF0080028B108202168C860204600F01D
:1029B0000FFA06F0020038B12068C06800F003008A
:1029C00010B1204600F005FA06F0400038B10BF0D7
:1029D000100020B145F4806510202168086106F0E0
:1029E000200040B10BF0080028B1082021680861E0
:1029F000204600F0E3FA06F0100038B120680069C4
:102A000000F0030010B1204600F0D9FA06F40030BF
:102A100040B109F0100028B110202168486020461C
:102A200000F0CEFA06F4803040B109F0080028B179
:102A3000082021684860204600F0F8FA06F40040BB
:102A400088B309F0040078B306F4807020B108F070
:102A5000010008B145F0010506F4007020B108F04E
:102A6000020008B145F0020506F4806020B108F0CC
:102A7000040008B145F0040506F40060A0B108F0B8
:102A8000700088B108F07000402817D006DC1028CC
:102A90000BD020280CD0302819D10CE0502810D0B1
:102AA000602814D110E01DE019E045F008050FE0A2
:102AB00045F010050CE045F0200509E045F0400523
:102AC00006E045F0800503E045F4807500E000BFB6
:102AD00000BF2068806920F07000216888610420B0
:102AE000216848602DB1606A284360622046FFF784
:102AF0001DFEBDE8F09F70B504460CB9012070BD05
:102B000094F8200010B9204600F0B0F82068006862
:102B100020F002002168086000F076FD05460DE017
:102B200000F072FD401B0A2808D9606A40F40030AA
:102B30006062052084F820000120E0E720684068FA
:102B400000F002000028EBD12068006840F001008E
:102B50002168086000F058FD05460DE000F054FDC6
:102B6000401B0A2808D9606A40F4003060620520E2
:102B700084F820000120C2E72068406800F00100CE
:102B80000028EBD0207E012806D12068006840F0A4
:102B900080002168086005E02068006820F080005F
:102BA00021680860607E012806D12068006840F036
:102BB00040002168086005E02068006820F04000BF
:102BC00021680860A07E012806D12068006840F0D6
:102BD00020002168086005E02068006820F02000DF
:102BE00021680860E07E012806D12068006820F096
:102BF00010002168086005E02068006840F01000BF
:102C000021680860207F012806D12068006840F014
:102C100008002168086005E02068006820F00800CE
:102C200021680860607F012806D12068006840F0B4
:102C300004002168086005E02068006820F00400B6
:102C400021680860D4E902010843216908436169E9
:102C500008436168491E08432168C861002060621A
:102C6000012084F82000002049E7000010B586B05C
:102C70000446142101A8FDF7E7FB4F49206888426C
:102C800041D14E480068401C4C4908600846006825
:102C900001280FD100BF002000904948006840F093
:102CA0000070474908600846006800F00070009016
:102CB00000BF00BF00BF00200090414810380068EE
:102CC00040F008003E49103908600846006800F0EE
:102CD0000800009000BF00BF032001900220029076
:102CE00000200390032004900920059001A9354895
:102CF00000F07CFB00220621142000F02FFD1420A0
:102D000000F01CFD55E030492068884251D100BFD9
:102D1000002000902A48006840F080602849086040
:102D20000846006800F08060009000BF00BF2348A4
:102D30000068401C214908600846006801280FD13E
:102D400000BF002000901E48006840F000701C4941
:102D500008600846006800F00070009000BF00BFE7
:102D600000BF0020009016481038006840F00200B4
:102D70001349103908600846006800F0020000900E
:102D800000BF00BF4FF4405001900220029000208D
:102D90000390032004900920059001A90B4800F03E
:102DA00025FB00220621402000F0D8FC402000F046
:102DB000C5FC06B010BD00000064004020000020EB
:102DC00040380240000C024000680040000402400D
:102DD0007047704710B504463E4B3F4A00212046DD
:102DE000FFF7A5FC3C480068B0F5017F52D007DC36
:102DF000A0F20120F0B101282CD0022868D139E0DE
:102E0000A0F2013000285CD03F2804D0A0F2FF20BF
:102E100000285DD14EE005F0FBFB0E20FFF73EF8E9
:102E20002E4890ED000AF7EE000A30EE200A80ED01
:102E3000000A4DE028480078401E294908702949B9
:102E4000274A127801EB421006F02EFF0320FFF70D
:102E500025F83DE020480078401E234908702149AC
:102E6000214A127801EB421006F01EFF0420FFF702
:102E700015F82DE018480078401E1C4908701949C3
:102E80001A4A127801EB421006F00EFF0520FFF7F8
:102E900005F81DE010480078401E154908701149DA
:102EA000134A127801EB421006F0FEFE0620FEF7F0
:102EB000F5FF0DE0074804F0CBFE0C20FEF7EEFF17
:102EC00006E0044802F01CFE0D20FEF7E7FF00BFFD
:102ED00000BF10BDAC00002028460020A00000204C
:102EE000B800002090450020B9000020BA00002062
:102EF000BB00002010B50446294B2A4A0021204679
:102F0000FFF715FC27480068A0F2052030B1012822
:102F100014D0022822D0032840D12FE02148007885
:102F2000401F2149087021491F4A127801EB4210C5
:102F300006F002FF0720FEF7B1FF2FE019480078E6
:102F4000401F1B4908701949194A127801EB4210B9
:102F500006F0F2FE0820FEF7A1FF1FE011480078FE
:102F6000401F144908701149124A127801EB4210AF
:102F700006F0E2FE0920FEF791FF0FE00948007815
:102F8000401F0D49087009490B4A127801EB4210A5
:102F900006F0D2FE0A20FEF781FF00BF00BF10BD81
:102FA000AC00002028460020BC0000201045002076
:102FB000BD000020BE000020BF0000207047704709
:102FC000704770B5044694F82000012822D10220F1
:102FD00084F820002068006820F001002168086063
:102FE00000F012FB05460DE000F00EFB401B0A2826
:102FF00008D9606A40F400306062052084F820003F
:10300000012070BD2068406800F001000028EBD16D
:103010006062F6E7606A40F4002060620120F0E739
:103020007047704770477047704770477047014658
:1030300091F83500022803D08020486501207047B0
:10304000052081F835000868006820F001000A6852
:1030500010600020F3E70000F8B50446002000905F
:103060008C4800684FF41651B0FBF1F7A56D2E683F
:1030700094F85C1008208840304098B120680068BF
:1030800000F0040070B12068006820F0040021689E
:10309000086094F85C1008208840A860606D40F0DB
:1030A0000100606594F85C1001208840304068B1F0
:1030B0002068406900F0800040B194F85C10012065
:1030C0008840A860606D40F00200606594F85C1074
:1030D00004208840304068B12068006800F0020099
:1030E00040B194F85C1004208840A860606D40F006
:1030F0000400606594F85C1010208840304078B37C
:103100002068006800F0080050B394F85C101020AC
:103110008840A8602068006800F4802080B12068A2
:10312000006800F4002028B9206CC8B12046216C4A
:10313000884715E0A06C98B12046A16C88470FE045
:103140002068006800F4807028B92068006820F0CA
:10315000080021680860206C10B12046216C884767
:1031600094F85C10202088403040002865D020680A
:10317000006800F0100000285FD094F85C10202058
:103180008840A86094F83500052828D12068006898
:1031900020F01600216808602068406920F0800057
:1031A00021684861206C08B9A06C28B120680068CB
:1031B00020F008002168086094F85C103F208840E7
:1031C000A86000BF002084F8340000BF012084F80C
:1031D0003500206D10B12046216D8847F8BD20686C
:1031E000006800F4802080B12068006800F40020AE
:1031F00028B9606C10B12046616C88471DE0E06B17
:10320000D8B12046E16B884717E02068006800F4D9
:10321000807068B92068006820F01000216808609C
:1032200000BF002084F8340000BF012084F835007E
:10323000E06B10B12046E16B8847606D38B3606D7C
:1032400000F00100F0B1052084F835002068006826
:1032500020F001002168086000BF0098401C009029
:10326000B84200D905E02068006800F0010000289D
:10327000F3D100BF00BF002084F8340000BF01205C
:1032800084F83500E06C10B12046E16C884700BF3F
:10329000A4E70000300000202DE9F041044600259D
:1032A00000F0B2F9074614B90120BDE8F081606A68
:1032B00000B100BF00BF002084F8340000BF02202E
:1032C00084F835002068006820F00100216808605B
:1032D0000AE000F099F9C01B052805D92020606597
:1032E000032084F83500E0E72068006800F0010062
:1032F0000028EED12068056821480540D4E9010185
:103300000843E16808432169084361690843A169EA
:103310000843E1690843216A08430543606A0428B9
:1033200003D1D4E90B0108430543206805602068F8
:10333000456925F00705606A0543606A04280DD1D8
:10334000A06A0543E06A48B12046FEF781FC28B137
:1033500040206065012084F83500A6E720684561BB
:103360002046FEF75BFC064694F85C103F20884040
:10337000B06000206065012084F83500002094E7EB
:103380003F8010F02DE9F04104460D4616461F46D9
:103390004FF0000800BF94F83400012802D1022049
:1033A000BDE8F081012084F8340000BF94F83500B6
:1033B000012811D1022084F83500002060653B46C9
:1033C000324629462046FEF798FC2068006840F007
:1033D00001002168086006E000BF002084F8340086
:1033E00000BF4FF002084046DAE70000F8B5024699
:1033F0000B460025002400200021E6E0012606FA05
:1034000001F51E6806EA0504AC4273D15E68012E20
:1034100008D05E68022E05D05E68112E02D05E686C
:10342000122E13D190684F000326BE40B0434F00C8
:10343000DE68BE4030439060506801268E40B04345
:103440001E79C6F300168E4030435060D0684F009E
:103450000326BE40B0434F009E68BE403043D0605C
:103460005E68022E02D05E68122E13D1CF0802F1E0
:10347000200656F827004E07F70E0F26BE40B04331
:103480004F07FF0E1E69BE403043CF0802F12006F1
:1034900046F8270010684F000326BE40B0431E794F
:1034A00006F003064F00BE40304310605E6806F031
:1034B0008056B6F1805FA8D100BF00260096454E29
:1034C000366846F48046434F3E603E46366806F412
:1034D0008046009600BF00BF3F4E8F0856F8270079
:1034E0008E07370F0F26BE40B0433C4EB24202D18A
:1034F00000262EE068E03A4EB24201D1012628E0D3
:10350000384EB24201D1022623E0374EB24201D1F9
:1035100003261EE0354EB24201D1042619E0344E96
:10352000B24201D1052614E0324EB24201D1062644
:103530000FE0314EB24201D107260AE02F4EB242CF
:1035400001D1082605E02E4EB24201D1092600E045
:103550000A268F073F0FBE4030431F4E8F0846F8A4
:103560002700284E3068A0435E6806F48036B6F522
:10357000803F00D12043234E3060361D3068A04389
:103580005E6806F40036B6F5003F00D120431D4EBC
:10359000361D3060361D3068A0435E6806F4801624
:1035A000B6F5801F00D12043164E08363060361D18
:1035B0003068A0435E6806F40016B6F5001F00D11F
:1035C0002043104E0C363060491C1029FFF416AF12
:1035D000F8BD0000443802400838014000000240B5
:1035E0000004024000080240000C024000100240AB
:1035F0000014024000180240001C0240002002405B
:1036000000240240003C014001480068704700006F
:103610002400002003480068034909780844014950
:1036200008607047240000202C00002010B50D48D1
:10363000006840F400700B4908600846006840F4D8
:10364000806008600846006840F4807008600320CD
:1036500000F0C2F8002000F007F800F04BF800205E
:1036600010BD0000003C024070B588B00446002543
:10367000002600222146192000F070F8192000F0E1
:103680005DF800BF002001901648006840F001007E
:10369000144908600846006800F00100019000BF6E
:1036A00000BF02A903A800F08FF900F0C5F945009A
:1036B0000D48B5FBF0F0461E0C480D49086040F27D
:1036C000E7310B48C160466000210161816000F074
:1036D00061FC20B9064800F078FC08B070BD0120FC
:1036E000FBE700004438024040420F000000014068
:1036F000B406002008B500BF002000900E48006806
:1037000040F480400C4908600846006800F480409E
:10371000009000BF00BF00BF00200090081F00689D
:1037200040F08050091F08600846006800F0805093
:10373000009000BF00BF08BD443802400146084663
:10374000002809DB00F01F0301229A4043099B0077
:1037500003F1E023C3F8002100BF70472DE9F05FBB
:1037600080460D461646002704F0BAFF0746394644
:103770002A46334601F00700C0F1070ABAF1040FE8
:1037800002D94FF0040A01E0C0F1070AD14600F166
:10379000040ABAF1070F02D24FF0000A01E0A0F1CB
:1037A000030AD4464FF0010A0AFA09FAAAF1010AFB
:1037B0000AEA020A0AFA0CFA4FF0010B0BFA0CFBA8
:1037C000ABF1010B0BEA030B4AEA0B04214640461E
:1037D00004F08EFFBDE8F09F00BF00F00702064B2B
:1037E00019684FF6FF031940044B0B4343EA0221CB
:1037F000014B196000BF70470CED00E00000FA05B6
:1038000000BF00BF00BF00BF00BFBFF34F8F00BFAE
:1038100000BF00BF0948006800F4E06008490843A1
:10382000001D0649086000BF00BF00BFBFF34F8FF7
:1038300000BF00BF00BF00BF00BFFDE70CED00E010
:103840000000FA0570B504460D460CB9012070BDA4
:103850005848006800F00F00A84209D255490D7081
:103860000846006800F00F00A84201D00120EEE7F2
:10387000207800F0020002281DD1207800F004001A
:10388000042805D14C48006840F4E0504A490860DB
:10389000207800F00800082805D14748006840F467
:1038A0006040454908604448006820F0F000A16885
:1038B000084341490860207800F00100A8B360681F
:1038C000012807D13C4808380068C0F34040B8B927
:1038D0000120BCE76068022802D06068032807D195
:1038E000354808380068C0F3406048B90120AEE7A9
:1038F000314808380068C0F3400008B90120A6E745
:103900002D48006820F00300616808432A490860D8
:10391000FFF77AFE064609E0FFF776FE801B41F2CC
:103920008831884202D9032091E707E022480068E5
:1039300000F00C006168B0EB810FEDD11D4800680C
:1039400000F00F00A84209D91A490D700846006816
:1039500000F00F00A84201D0012078E7207800F0A5
:103960000400042807D11448006820F4E050E168FE
:10397000084311490860207800F00800082808D1A1
:103980000D48006820F46040216940EAC1000A49FE
:10399000086000F061F808490968C1F30311074A9B
:1039A000515CC8400649086006480068FFF75CFEA5
:1039B00000204CE7003C02400838024064AF000899
:1039C00030000020280000200F2202600D4A1268FB
:1039D00002F0030242600B4A126802F0F0028260B9
:1039E000084A126802F4E052C260064A126802F401
:1039F0006042D2080261044A126802F00F020A60B3
:103A00007047000008380240003C0240014800684E
:103A1000704700003000002000B5FFF7F7FF0449B1
:103A20000968C1F38221034A515CC84000BD00000F
:103A30000838024074AF000800B5FFF7E7FF0449FB
:103A40000968C1F34231034A515CC84000BD00001F
:103A50000838024074AF00082DE9F0470024002523
:103A60000026A1462548006800F00C0020B104287B
:103A700005D008283AD105E0DFF8849039E0DFF876
:103A8000849036E01D48001F006800F03F041B488A
:103A9000001F006800F4800078B11A481749091F18
:103AA0000968C1F38811A0FB01700146224600237A
:103AB0003846FCF77FFC05460EE011480F49091F08
:103AC0000968C1F38811A0FB01700146224600235A
:103AD0003846FCF76FFC05460848001F0068C0F335
:103AE0000140401C4600B5FBF6F902E0DFF81090FB
:103AF00000BF00BF4846BDE8F0870000083802401C
:103B00000024F400001BB700F8B504460CB90120EE
:103B1000F8BD207800F00100002874D0F948006852
:103B200000F00C0004280DD0F648006800F00C00EE
:103B3000082813D1F348001F006800F48000B0F596
:103B4000800F0BD1EF4808380068C0F340400028D0
:103B500059D06068002856D10120D9E700BF6068BD
:103B6000B0F5803F08D1E7480838006840F480305D
:103B7000E449083908601EE06068B0F5A02F0DD157
:103B8000E0480838006840F48020DE4908390860C1
:103B90000846006840F4803008600CE0D9480838D6
:103BA000006820F48030D74908390860084600686A
:103BB00020F48020086000BF606890B1FFF724FD0A
:103BC000054606E0FFF720FD401B642801D90320CD
:103BD0009EE7CC4808380068C0F340400028F1D088
:103BE00011E0FFF711FD054606E0FFF70DFD401B54
:103BF000642801D903208BE7C24808380068C0F365
:103C000040400028F1D1207800F0020002285FD166
:103C1000BC48006800F00C0058B1BA48006800F0D9
:103C20000C0008281CD1B748001F006800F4800071
:103C3000B0B9B44808380068C0F3400020B1E0686B
:103C4000012801D0012063E7AE480838006820F061
:103C5000F800216940EAC100AA490839086037E044
:103C6000E06800B30120A8490860FFF7CDFC0546D5
:103C700006E0FFF7C9FC401B022801D9032047E7F3
:103C8000A04808380068C0F340000028F1D09D48E3
:103C90000838006820F0F800216940EAC10099491D
:103CA0000839086014E0002097490860FFF7ACFC71
:103CB000054606E0FFF7A8FC401B022801D90320B7
:103CC00026E7904808380068C0F340000028F1D18A
:103CD000207800F0080008282CD16069A8B10120E4
:103CE0008A490860FFF790FC054606E0FFF78CFC68
:103CF000401B022801D903200AE782486C30006883
:103D0000C0F340000028F1D014E000207F49086093
:103D1000FFF77AFC054606E0FFF776FC401B022819
:103D200001D90320F4E677486C300068C0F3400006
:103D30000028F1D1207800F00400042870D1002779
:103D400070483830006800F0805090B900BF002003
:103D500000906C483830006840F080506949383134
:103D600008600846006800F08050009000BF00BF67
:103D700001276748006800F48070B0B964480068A3
:103D800040F4807062490860FFF73EFC054606E09B
:103D9000FFF73AFC401B022801D90320B8E65C4833
:103DA000006800F480700028F2D000BFA0680128ED
:103DB00008D154486830006840F00100514968312A
:103DC00008601DE0A06805280DD14E4868300068E5
:103DD00040F004004B49683108600846006840F034
:103DE000010008600CE047486830006820F00100DE
:103DF0004449683108600846006820F00400086003
:103E000000BFA068A8B1FFF7FFFB054609E0FFF778
:103E1000FBFB401B41F28831884202D9032077E640
:103E200026E0384868300068C0F340000028EED033
:103E300013E0FFF7E9FB054608E0FFF7E5FB401B51
:103E400041F28831884201D9032061E62D4868306B
:103E50000068C0F340000028EFD1012F07D12948A6
:103E60003830006820F0805026493831086000BFA3
:103E7000A069002845D02348006800F00C000828FD
:103E80005DD0A069022845D100201F490866FFF7D0
:103E9000BBFB054606E0FFF7B7FB401B022801D934
:103EA000032035E6174808380068C0F34060002852
:103EB000F1D1D4E907010843616A40EA8111012286
:103EC000A06AC2EB500041EA00412C20005D41EAAB
:103ED00000600C49091F086001200B490866FFF7C4
:103EE00093FB054606E0FFF78FFB401B022801D934
:103EF00003200DE6034808380068C0F3406000283E
:103F0000F1D03FE00838024000004742800E4742AF
:103F10000070004000201C490866FFF775FB05464D
:103F200006E0FFF771FB401B022801D90320EFE5F3
:103F300016480068C0F340600028F2D122E0A06972
:103F4000012800D1E4E51148001D066806F480014F
:103F5000E069814214D106F03F01206A81420FD10D
:103F600047F6C0703040616A884209D106F440319A
:103F7000A06A814204D106F07061E06A814201D0FA
:103F80000120C5E50020C3E500004742003802409B
:103F90007047704710B504460CB9012010BD94F865
:103FA0003D0028B9002084F83C00204600F00CF8C1
:103FB000022084F83D00211D206803F0DBFE012073
:103FC00084F83D000020E9E7704701460868C068B2
:103FD00040F001000B68D8600868806800F00702B4
:103FE000062A05D00868006840F001000B681860D8
:103FF00000207047704710B5044620680069C0F380
:104000004000D8B12068C068C0F34000B0B16FF084
:10401000020021680861012020772068806900F093
:10402000030018B12046FFF7E5FF05E0204600F049
:10403000ADF8204600F0ABF800202077206800693A
:10404000C0F38000D8B12068C068C0F38000B0B170
:104050006FF00400216808610220207720688069E1
:1040600000F4407018B12046FFF7C4FF05E0204679
:1040700000F08CF8204600F08AF8002020772068B5
:104080000069C0F3C000D8B12068C068C0F3C000A8
:10409000B0B16FF008002168086104202077206823
:1040A000C06900F0030018B12046FFF7A3FF05E048
:1040B000204600F06BF8204600F069F800202077D9
:1040C00020680069C0F30010D8B12068C068C0F350
:1040D0000010B0B16FF0100021680861082020774F
:1040E0002068C06900F4407018B12046FFF782FFD5
:1040F00005E0204600F04AF8204600F048F800208D
:1041000020772068006900F0010058B12068C0687D
:1041100000F0010030B16FF0010021680861204615
:1041200000F036F820680069C0F3C01058B120686C
:10413000C068C0F3C01030B16FF080002168086122
:104140002046FFF725FF20680069C0F3801058B1B2
:104150002068C068C0F3801030B16FF04000216863
:104160000861204600F020F820680069C0F3401084
:1041700058B12068C068C0F3401030B16FF0200023
:10418000216808612046FFF704FF10BD70477047A3
:1041900010B5044603492068884201D1FFF73AFA76
:1041A00010BD000000000140704770472DE9F04746
:1041B0000446206805682068C668206847694FF093
:1041C0000008C14605F00F08B8F1000F0AD105F04C
:1041D000200038B106F0200020B1204603F0C8FED0
:1041E000BDE8F087B8F1000F72D007F0010018B9F0
:1041F00006F4907000286BD005F0010030B106F491
:10420000807018B1E06B40F00100E06305F004003D
:1042100030B107F0010018B1E06B40F00200E0633C
:1042200005F0020030B107F0010018B1E06B40F07A
:104230000400E06305F0080048B106F0200010B962
:1042400007F0010018B1E06B40F00800E063E06B9C
:1042500070B305F0200028B106F0200010B1204610
:1042600003F086FE20684069C0F38019E06B00F01F
:10427000080010B9B9F1000F23D0204603F058FE12
:104280002068406900F04000402816D1206840694D
:1042900020F0400021684861606B50B11748616BA5
:1042A0000865606BFEF7C3FE10B1606B016D884757
:1042B0000CE02046FFF779FF08E02046FFF775FF86
:1042C00004E02046FFF771FF0020E06388E7FFE786
:1042D00005F0800030B106F0800018B1204604F0EF
:1042E0008FF87DE705F0400030B106F0400018B1CE
:1042F000204603F02DFE73E700BF71E71D7F000825
:1043000010B504460CB9012010BDA06900B100E051
:1043100000BF94F8390028B9002084F838002046FE
:1043200000F028F8242084F839002068C06820F4C0
:1043300000502168C860204603F06EFE20680069C6
:1043400020F49040216808612068406920F02A002C
:10435000216848612068C06840F400502168C86046
:104360000020E063202084F8390084F83A0000201F
:10437000CAE7000010B586B00446142101A8FCF776
:1043800063F876492068884230D100BF0020009051
:104390007348006840F000407149086008460068B2
:1043A00000F00040009000BF00BF00BF0020009060
:1043B0006B481038006840F01000694910390860F7
:1043C0000846006800F01000009000BF00BF032006
:1043D0000190022002900120039003200490082005
:1043E000059001A95F48FFF701F8B4E05E49206835
:1043F000884279D100BF002000905948006840F4FD
:104400008020574908600846006800F4802000902A
:1044100000BF00BF00BF0020009051481038006866
:1044200040F008004E49103908600846006800F066
:104430000800009000BF00BF4FF4407001900220C0
:10444000029000200390032004900720059001A90A
:104450004648FEF7CBFF4648464908604FF00060EB
:104460004860002143488160C1604FF48061016170
:104470000021416181614FF48071C16100210162BD
:104480004162FEF709FF08B1FDF73CFD00BF394866
:104490006063846300BF36483030374908604FF0AE
:1044A000006048604021344881600021C1604FF4C1
:1044B00080610161002141618161C16101624162EC
:1044C000FEF7EAFE08B1FDF71DFD00BF2A48206394
:1044D000846300BF002205212720FFF73FF9272032
:1044E000FFF72CF937E0FFE724492068884232D1F2
:1044F00000BF002000901A48001D006840F0200016
:104500001749091D08600846006800F02000009067
:1045100000BF00BF00BF00200090114810380068A5
:1045200040F040000E49103908600846006800F06D
:104530004000009000BF00BF4FF484400190022073
:10454000029000200390032004900820059001A908
:104550000B48FEF74BFF06B010BD0000007C00408A
:10456000403802400010024000480040000C024069
:1045700028600240F4050020540600200014014089
:104580000018024070472DE9F84304460D461646D0
:104590001F464FF0000994F8390020285DD105B17D
:1045A00016B90120BDE8F88300BF94F8380001284F
:1045B00001D10220F6E7012084F8380000BF002076
:1045C000E063212084F83900FFF71EF88146A684B5
:1045D000E68400BF002084F8380000BF2BE0E08CA8
:1045E000401EE084A068B0F5805F16D14B460022E3
:1045F00080212046009703F037FF08B10320D1E760
:10460000A846B8F80000C0F3080021684860206997
:1046100008B9AD1C0FE06D1C0DE04B460022802157
:104620002046009703F020FF08B10320BAE715F8F1
:10463000010B21684860E08C0028D0D14B46002255
:1046400040212046009703F00FFF08B10320A9E79F
:10465000202084F839000020A4E70220A2E7704758
:1046600000BFFEE79FED120A80ED000A9FED100AE1
:1046700080ED010A9FED0E0A80ED020A9FED0C0A03
:1046800080ED030A9FED0A0A80ED040A9FED080AF7
:1046900080ED0A0A9FED060A80ED090A9FED040AE3
:1046A00080ED080A9FED020A80ED0B0A70470000BA
:1046B00000000000DFED101AC0ED001ADFED0E1A49
:1046C000C0ED011ADFED0C1AC0ED021ADFED0A1A77
:1046D000C0ED031ADFED081AC0ED041A80ED050ADB
:1046E000C0ED060A80ED071A01634263DFED021A8E
:1046F000C0ED0B1A704700000000000038B50446FA
:1047000000BF00200090206800680090206840688A
:10471000009000BF00BF606B0068006820F00100DF
:10472000616B09680860606B006840680D4908802B
:10473000098840F28512511A88B200F039F840F227
:104740008510616B09684860606B0068006840F024
:104750000100616B0968086003484088401C0249F9
:10476000488038BDD2000020CC00002038B5044677
:1047700000BF00200090206800680090206840681A
:10478000009000BF00BF2068C06840F4005021685E
:10479000C8602068C06840F010002168C86040F21E
:1047A00085120249204603F0BDFE38BD9D4E002013
:1047B00070B505460024E5E1F748005DA52879D1EC
:1047C000F549601D095CF44AA01D105C41EA002017
:1047D00040F20222811A90426DD017DC40F20112A1
:1047E000A0EB0201904267D006DC062879D2DFE810
:1047F00000F078223B4E6682012973D0032972D0E3
:10480000042971D0B1F5807F6BD1DBE005296CD034
:1048100008DC01296AD0022969D0032968D004295B
:10482000F2D131E106297CD007297BD008297AD042
:10483000FF29E9D191E1D8490819142103F0C8FEF4
:1048400080B1D549E01D0144D4480A6802604A6835
:1048500042600A890281897A817214340120CF4929
:10486000C87200E0641C8BE1CB4908190A2103F0EF
:10487000AFFE50B1C849E01D0144C9480978017034
:104880000A340120C649487000E0641C78E1C2493E
:104890000819292103F09CFE78B1BF4AE01D1118C8
:1048A0002022C048FBF7B7FD29340120BD4981F81B
:1048B000200003E065E199E038E0641C60E1B6495E
:1048C00008190C2103F084FE98B1B349E01D084497
:1048D000B54902880A80807888700C340120C8703D
:1048E00008E04BE135E047E059E0E0E092E0A5E088
:1048F000B7E0641C44E1A8490819142103F068FEDC
:1049000090B1A549E01D0844A84902680A604268C0
:104910004A6002890A81807A887214340120C87240
:1049200003E0DBE0EFE001E1641C29E19A490819AA
:104930000D2103F04DFE50B19749E01D01449C4804
:10494000096801600D3401209949087100E0641C78
:1049500016E1914908190D2103F03AFE50B18E4934
:10496000E01D01449348096801600D34012091491C
:10497000087100E0641C03E1874908190B2103F06A
:1049800027FE50B18449E01D01448B48098801800D
:104990000B3401208849887000E0641CF0E07E49F7
:1049A00008190A2103F014FE50B17B49E01D0144AF
:1049B0008248097801700A3401208049487000E07B
:1049C000641CDDE074490819242103F001FE58B18C
:1049D000714AE01D11181B227948FBF71CFD243495
:1049E00001207749C87600E0641CC9E06A490819CB
:1049F000192103F0EDFD58B1674AE01D111810228E
:104A00007048FBF708FD193401206E49087400E076
:104A1000641CB5E060490819192103F0D9FD58B1AB
:104A20005D4AE01D111810226748FBF7F4FC1934A9
:104A300001206549087400E0641CA1E0564908198A
:104A40000A2103F0C5FD50B15349E01D01445F4800
:104A5000097801700A3401205C49487000E0641C48
:104A60008EE04D4908190A2103F0B2FD50B14A49C0
:104A7000E01D01445648097801700A340120544968
:104A8000887000E0641C7BE0434908190A2103F0A8
:104A90009FFD50B14049E01D01444E480978017026
:104AA0000A3401204B49487000E0641C68E03A4930
:104AB0000819102103F08CFD70B13749E01D014445
:104AC00045480A6802608A88828089798171103439
:104AD00001204149C87100E0641C51E02E490819C9
:104AE0000F2103F075FD60B12B49E01D01443B48E7
:104AF0000A680260898881800F34012037498871F3
:104B000000E0641C3CE0244908190D2103F060FD1D
:104B100050B12149E01D01443148096801600D345C
:104B200001202F49087100E0641C29E01A49081986
:104B3000152103F04DFD70B11749E01D01442948CE
:104B40000A6802604A684260896881601534012001
:104B50002449087300E0641C12E00F49081923215E
:104B600003F036FD40B10C4AE01D11181A221E4810
:104B7000FBF751FC233400E0641C01E0641C00BF1F
:104B800000E0641CAC42FFF617AE18484088401C99
:104B90001649488070BD00009D4E0020144800203A
:104BA000DA00002020480020DC00002041480020DE
:104BB000E0000020E5000020EA000020ED000020D9
:104BC0004D480020694800207A480020EF0000206E
:104BD000F1000020F4000020F6000020FE0000207C
:104BE000050100208B48002022500020D400002026
:104BF00010B5A520414908703320A1F8010000201C
:104C0000C8703F480A680260097901710521FCF704
:104C100033F840F201303949A1F8050005F018F8E1
:104C20004FF488703549A1F80700364801783348B9
:104C3000A0F80910344801883048A0F80B10022170
:104C40008173008A20F4707040302C490882084635
:104C5000007C20F00700401C08740846007C20F00F
:104C60003800383008740846407C20F03C0008309A
:104C7000487414212148B0F8110061F38E101F49C7
:104C8000A1F811000D211D48408A61F3CF101B4986
:104C900048820846808A6FF30900401C888240F2EF
:104CA000DC511648B0F8150061F38C001349A1F8E7
:104CB000150040F2EE211148C08A61F34F100F49F0
:104CC000C88212A10D481C30FBF7D5FB12A10B487E
:104CD0001C30FBF7D0FB35220849491D0848401D10
:104CE000FBF799FB3C210648FBF7AEFF3C24FF2372
:104CF000224603490C48FFF746FC10BD864D0020B4
:104D0000215200204D4800200C01002020202020AE
:104D100020202020200000004D6167617A696E65C7
:104D20003A4F4646000000007405002010B5A5204B
:104D3000294908703320A1F801000020C8702748D5
:104D40000A680260097901710521FBF795FF40F2BD
:104D500001302149A1F8050004F07AFF4FF4887072
:104D60001D49A1F807001E4801781B48A0F809104A
:104D70001C4801881848A0F80B1002218173007CA0
:104D800020F00700801C144908741748007C10B1FB
:104D900001280CD105E015A10F481C30FBF76BFB77
:104DA00006E016A10C481C30FBF765FB00E000BFD5
:104DB00000BF35220849491D0848401DFBF72BFB61
:104DC0003C210648FBF740FF3C24FF2322460349D1
:104DD0000E48FFF7D8FB10BD864D00202152002061
:104DE0004D4800200C0100207C4400204D6167618B
:104DF0007A696E653A4F4646200000004D61676152
:104E00007A696E653A4F4E2000000000740500205C
:104E100010B5A520414908703320A1F801000020F9
:104E2000C8703F480A680260097901710521FBF7E3
:104E300023FF40F201303949A1F8050004F008FFD2
:104E40004FF488703549A1F8070036480178334897
:104E5000A0F80910344801883048A0F80B1003214D
:104E60008173008A20F4707040302C490882084613
:104E7000007C20F00700401C08740846007C20F0ED
:104E80003800383008740846407C20F03C000C3074
:104E9000487414212148B0F8110061F38E101F49A5
:104EA000A1F8110019211D48408A61F3CF101B4958
:104EB00048820846808A6FF30900401C888240F2CD
:104EC000DC511648B0F8150061F38C001349A1F8C5
:104ED00015004FF42A711148C08A61F34F100F4931
:104EE000C88212A10D481C30FBF7C5FA12A10B486D
:104EF0001C30FBF7C0FA35220849491D0848401DFF
:104F0000FBF789FA3C210648FBF79EFE3C24FF2371
:104F1000224603490D48FFF736FB10BDC24D002065
:104F2000855200204D4800200C0100202020202028
:104F30002020202020000000436861737369734DB6
:104F40006F64653A4E6F726D616C000074050020ED
:104F500010B5A520354908703320A1F801000020C4
:104F6000C87033480A680260097901710521FBF7AE
:104F700083FE40F201302D49A1F8050004F068FEDF
:104F80004FF488702949A1F807002A48017827487A
:104F9000A0F80910284801882448A0F80B10032124
:104FA0008173007C20F00700801C2049087423488E
:104FB000B0F90600082823D2DFE800F01604220A20
:104FC0002222101C1EA119481C30FBF754FA18E0CD
:104FD00020A116481C30FBF74EFA12E022A113481C
:104FE0001C30FBF748FA0CE024A110481C30FBF7FA
:104FF00042FA06E026A10D481C30FBF73CFA00E01F
:1050000000BF00BF35220949491D0948401DFBF773
:1050100002FA3C210648FBF717FE3C24FF232246F8
:1050200003492348FFF7AFFA10BD0000C24D00202E
:10503000855200204D4800200C0100207C440020B7
:10504000436861737369734D6F64653A466F6C6C46
:105050006F770000436861737369734D6F64653ADD
:105060005370696E00000000436861737369734D8B
:105070006F64653A4C6F636B0000000043686173B6
:105080007369734D6F64653A44697361626C65005E
:10509000436861737369734D6F64653A4348415364
:1050A0005F4E6F74666F6C6C6F774D6F6465000058
:1050B0007405002010B5A520414908703320A1F8DF
:1050C00001000020C8703F480A6802600979017138
:1050D0000521FBF7D1FD40F201303949A1F8050067
:1050E00004F0B6FD4FF488703549A1F80700364842
:1050F00001783348A0F80910344801883048A0F8F6
:105100000B1005218173008A20F4707040302C4907
:1051100008820846007C20F00700401C08740846FE
:10512000007C20F03800383008740846407C20F0BD
:105130003C001430487414212148B0F8110061F388
:105140008E101F49A1F8110010211D48408A61F3FB
:10515000CF101B4948820846808A6FF30900401C23
:10516000888240F2DC511648B0F8150061F38C00DB
:105170001349A1F815004FF407711148C08A61F373
:105180004F100F49C88212A10D481C30FBF773F96C
:1051900012A10B481C30FBF76EF935220849491D56
:1051A0000848401DFBF737F93C210648FBF74CFD4A
:1051B0003C24FF23224603490C48FFF7E4F910BDC5
:1051C0003A4E00204D5300204D4800200C01002095
:1051D000202020202020202020000000506974631F
:1051E000683A44656661756C7400000074050020BF
:1051F0007047000010B5A520414908703320A1F880
:1052000001000020C8703F480A68026009790171F6
:105210000521FBF731FD40F201303949A1F80500C5
:1052200004F016FD4FF488703549A1F807003648A0
:1052300001783348A0F80910344801883048A0F8B4
:105240000B1004218173008A20F4707040302C49C7
:1052500008820846007C20F00700401C08740846BD
:10526000007C20F03800383008740846407C20F07C
:105270003C001030487414212148B0F8110061F34B
:105280008E101F49A1F8110014211D48408A61F3B6
:10529000CF101B4948820846808A6FF30900401CE2
:1052A000888240F2DC511648B0F8150061F38C009A
:1052B0001349A1F8150040F262211148C08A61F338
:1052C0004F100F49C88212A10D481C30FBF7D3F8CC
:1052D00012A10B481C30FBF7CEF835220849491DB6
:1052E0000848401DFBF797F83C210648FBF7ACFC4B
:1052F0003C24FF23224603490C48FFF744F910BD24
:10530000FE4D0020E95200204D4800200C010020F5
:1053100020202020202020202000000056697369D2
:105320006F6E4D6F64653A4E6F6E650074050020B8
:1053300010B5A520354908703320A1F801000020E0
:10534000C87033480A680260097901710521FBF7CA
:1053500093FC40F201302D49A1F8050004F078FCDF
:105360004FF488702949A1F807002A480178274896
:10537000A0F80910284801882448A0F80B1004213F
:105380008173008A20F470704030204908820846FA
:10539000007C20F00700801C08742048807A0128D7
:1053A0001CD11E48B0F90800022804D0052808D0F6
:1053B000062812D10BE01AA114481C30FBF75BF849
:1053C0000BE01DA111481C30FBF755F805E01EA1AC
:1053D0000E481C30FBF74FF800BF04E01FA10B483C
:1053E0001C30FBF748F835220849491D0848401D84
:1053F000FBF711F83C210648FBF726FC3C24FF2371
:10540000224603491A48FFF7BEF810BDFE4D0020A2
:10541000E95200204D4800200C0100207C4400206F
:10542000566973696F6E4D6F64653A4249475769B3
:105430006E646D696C6C2000566973696F6E4D6F98
:1054400064653A546F702000566973696F6E4D6FD2
:1054500064653A466F7263617374200056697369BC
:105460006F6E4D6F64653A4F66666C696E652000BD
:105470007405002010B5A520414908703320A1F81B
:1054800001000020C8703F480A6802600979017174
:105490000521FBF7F1FB40F201303949A1F8050085
:1054A00004F0D6FB4FF488703549A1F80700364860
:1054B00001783348A0F80910344801883048A0F832
:1054C0000B1001218173008A20F4707040302C4948
:1054D00008820846007C20F00700401C087408463B
:1054E000007C20F03800383008740846407C20F0FA
:1054F0003C00001D487414212148B0F8110061F3EC
:105500008E101F49A1F811000C211D48408A61F33B
:10551000CF101B4948820846808A6FF30900401C5F
:10552000888240F2DC511648B0F8150061F38C0017
:105530001349A1F8150040F23E311148C08A61F3C9
:105540004F100F49C88212A10D481C30FAF793FF83
:1055500012A10B481C30FAF78EFF35220849491D6D
:105560000848401DFAF757FF3C210648FBF76CFB43
:105570003C24FF23224603490B48FFF704F810BDE3
:105580004A4D0020BD5100204D4800200C01002054
:105590002020202020202020200000004672696367
:1055A0003A4D616E75616C007405002010B5A52040
:1055B0003A4908703320A1F801000020C87038482B
:1055C0000A680260097901710521FBF755FB40F279
:1055D00001303249A1F8050004F03AFB4FF488701D
:1055E0002E49A1F807002F4801782C48A0F809108F
:1055F0002D4801882948A0F80B1001218173007CF7
:1056000020F00700801C254908742848C07A00282B
:105610002CD1244840890F2806D012280AD01628F9
:105620000ED01E2818D111E021A11C481C30FAF719
:1056300022FF11E021A119481C30FAF71CFF0BE0F2
:1056400021A116481C30FAF716FF05E021A11348E6
:105650001C30FAF710FF00BF00BF1448C07B50B9E0
:105660001FA10E481C30FAF706FF04E020A10B48EA
:105670001C30FAF700FF35220849491D0848401D33
:10568000FAF7C9FE3C210648FBF7DEFA3C24FF236B
:10569000224603491A48FEF776FF10BD4A4D002006
:1056A000BD5100204D4800200C0100207C4400200A
:1056B000467269633A31356D2F7320004672696313
:1056C0003A31386D2F732000467269633A32326D79
:1056D0002F732000467269633A33306D2F732000B8
:1056E000467269633A506F7765724F4646200000F4
:1056F000467269633A4F66666C696E652000000009
:105700007405002010B50E480E4908600720486057
:1057100000210C488160C1604FF4403101610021DB
:1057200041610176012141768176C17600210177C0
:105730004177FDF7E0F908B1FCF7E4FB10BD00008C
:1057400000640040E404002010B50E480E490860D3
:105750000720486000210C488160C1604FF440314F
:105760000161002141610176012141768176C17696
:10577000002101774177FDF7BEF908B1FCF7C2FBC4
:1057800010BD0000006800400C05002008B500BFF7
:10579000002000900E48006840F400100C4908609A
:1057A0000846006800F40010009000BF00BF00220F
:1057B00005210C20FDF7D2FF0C20FDF7BFFF0022D2
:1057C00005210E20FDF7CAFF0E20FDF7B7FF08BD2B
:1057D0003038024000B5B1B01C222A492AA8FAF795
:1057E0001AFE00212AA804F051FB274908601C2258
:1057F00024491C3123A8FAF70EFE002123A804F047
:1058000045FB224908601C221E4938311CA8FAF7C2
:1058100002FE00211CA804F039FB1D4908601C226F
:105820001849543115A8FAF7F6FD002115A804F01F
:105830002DFB184908601C22124970310EA8FAF796
:10584000EAFD00210EA804F021FB134908601C2288
:105850000C498C3107A8FAF7DEFD002107A804F0F7
:1058600015FB0E4908601C220649A8316846FAF764
:10587000D2FD0021684604F009FB0949086031B0F7
:1058800000BD000098AE00080C00002010000020B1
:105890001400002018000020000000200400002058
:1058A0000800002008B500BF002000902C480068C8
:1058B00040F010002A4908600846006800F0100017
:1058C000009000BF00BF00BF0020009008460068A5
:1058D00040F0400008600846006800F0400000907A
:1058E00000BF00BF00BF002000900846006840F0E5
:1058F000010008600846006800F00100009000BF49
:1059000000BF00BF002000900846006840F008007B
:1059100008600846006800F00800009000BF00BF63
:1059200000BF002000900846006840F0800008603A
:105930000846006800F08000009000BF00BF00BF74
:10594000002000900846006840F002000860084609
:10595000006800F00200009000BF00BF08BD00001A
:105960003038024010B50B480B4908604FF4E13065
:105970004860002108488160C16001610C214161DB
:1059800000218161C161FEF7BBFC08B1FCF7BAFAE6
:1059900010BD0000007C00403405002010B50B480D
:1059A0000B4908604FF4E1304860002108488160ED
:1059B000C16001610C21416100218161C161FEF77B
:1059C0009FFC08B1FCF79EFA10BD000000480040A3
:1059D0007405002010B50B480B4908604FF4E13006
:1059E0004860002108488160C16001610C2141616B
:1059F00000218161C161FEF783FC08B1FCF782FAE6
:105A000010BD000000140140B405002000BFFEE7F7
:105A1000704710B5FFF7FCF910BD10B5FFF74AFB52
:105A200010BD00009FED120A80ED000A9FED100AE4
:105A300080ED010A9FED0E0A80ED020A9FED0C0A2F
:105A400080ED030A9FED0A0A80ED0A0A9FED080A1D
:105A500080ED090A9FED060A80ED080A9FED040A11
:105A600080ED040A9FED020A80ED0B0A70470000EA
:105A700000000000DFED101AC0ED001ADFED0E1A75
:105A8000C0ED011A01634263DFED0B1AC0ED021A8B
:105A9000DFED091AC0ED031ADFED071AC0ED041A95
:105AA00080ED050AC0ED060A80ED071ADFED021A47
:105AB000C0ED0B1A704700000000000000B500F0B8
:105AC00007F8F0EE401A00F00FF821EE800A00BD52
:105AD0000348D0ED010A9FED031A80EE810A70475A
