:020000040800F2
:1000000060C7002031030008CD9E0008AD7F0008C6
:10001000C99E0008E50E00082DED00080000000054
:100020000000000000000000000000007102000855
:100030003936000800000000CD020008C9DE0008C3
:100040004B0300084B0300084B0300084B03000858
:100050004B0300084B030008C93900084B03000894
:100060004B030008D3390008DD3900084B030008B2
:10007000411B00084B0300084B0300084B0300081A
:100080004B0300084B0300084B0300084B03000818
:10009000351000084B0300084B030008E73900083F
:1000A0004B0300084B0300084B0300084B030008F8
:1000B0004B03000815E000084B0300084B03000841
:1000C0004B0300084B0300084B0300084B030008D8
:1000D0004B0300084B0300084B030008E5EA000847
:1000E0004B0300084B0300084B0300084B030008B8
:1000F0004B0300084B0300084B0300084B030008A8
:100100004B0300084B0300084B0300084B03000897
:100110004B0300084B03000825E000084B030008D0
:100120004B030008511B0008611B00084B0300082B
:100130004B0300084B0300084B0300084B03000867
:10014000511000084B0300084B0300084B03000844
:100150004B0300084B0300084B03000801EB0008A9
:100160004B0300084B0300084B0300084B03000837
:100170004B0300084B0300084B030008000000007D
:100180004B0300084B03000800F002F800F060F891
:100190000AA090E8000C82448344AAF10107DA45E2
:1001A00001D100F055F8AFF2090EBAE80F0013F0D4
:1001B000010F18BFFB1A43F0010318471067010035
:1001C0003067010010F8013B0A4413F0030408BF34
:1001D00010F8014B1D1108BF10F8015B641E05D01B
:1001E00010F8016B641E01F8016BF9D1002D15D0D8
:1001F00010F8014B03F00C030C2BA1EB04040ABF15
:1002000010F8013BA4EB8314A4EB032405F10103D4
:1002100014F8016B5B1E01F8016BF9D5914238BFF0
:1002200010F8013BD1D3704700230024002500269D
:10023000103A28BF78C1FBD8520728BF30C148BF49
:100240000B6070471FB514F0A9FE1FBD10B510BD9F
:1002500000F0A0FA1146FFF7F5FF10F0B9FF00F02B
:10026000BEFA03B4FFF7F2FF03BC00F023FB00006B
:100270002C4B19680868B0E8F04F80F30988BFF389
:100280006F8F4FF0000080F311887047000000006E
:1002900008480068006880F308884FF0000080F389
:1002A000148862B661B6BFF34F8FBFF36F8F00DF64
:1002B00000BF00BF08ED00E0DFF80C00016841F46A
:1002C00070010160704700BF88ED00E0EFF3098026
:1002D000BFF36F8F134B1A681EF0100F08BF20ED8D
:1002E000108A20E9F04F106009B44FF0500080F3FD
:1002F0001188BFF34F8FBFF36F8F12F035FB4FF0B4
:10030000000080F3118809BC19680868B0E8F04F54
:100310001EF0100F08BFB0EC108A80F30988BFF3FD
:100320006F8F7047FC030020EFF3058070470000DB
:100330000948804709480047FEE7FEE7FEE7FEE779
:10034000FEE7FEE7FEE7FEE7FEE7FEE704480549B5
:10035000054A064B70470000B1DF0008890100081C
:100360006087002060C7002060A7002060A70020F1
:100370009FED1A1AF5EE000A40EE010ABDEEE00A02
:10038000F5EEC00A10EE100AF1EE10FA38BF401E6A
:1003900000EE100A1349F7EE001AB8EEC00A30EE6C
:1003A000C00ADFED0F0A20EE200AFCEEC00A10EEB4
:1003B000900AC0F3080000EE900A01EB8000F8EE0E
:1003C000600A90ED011A70EE600A90ED000A71EE7D
:1003D000E01A21EE800A00EE810A704783F9223E7E
:1003E0000000004444600108B5EEC00AF1EE10FAC6
:1003F00007D2DFED1E0AB4EEE00AF1EE10FAA8BF54
:100400007047DFED1B0AB5EEC00A60EE200ABDEEB4
:10041000E01A11EE100AF1EE10FA38BF401E00EE9D
:10042000100A1549F7EE001AB8EEC00A30EEC00AFD
:10043000DFED100A60EE200ABCEEE00A10EE100AB2
:10044000C0F3080000EE100A01EB8000B8EE400A8D
:1004500090ED011A70EEC00A90ED000A71EEE01AFC
:1004600021EE800A00EE810A70470000CD024CB4F4
:1004700083F9223E000000444460010853EA020C64
:1004800000F069802DE9F04B4FF00006002B1FBFF4
:10049000B3FA83F503FA05F424FA05F65E4012BFB9
:1004A0001643B2FA82F502FA05F4C5F120051EBF23
:1004B00022FA05FC44EA0C04203556EA044C4FEAC3
:1004C000144418BF641C4FF000084FF0000990421C
:1004D00071EB030C39D3002919BFB1FA81F701FA86
:1004E00007F6B0FA80F700FA07F6C7F120071EBF3B
:1004F00020FA07FC46EA0C062037B6FBF4FCA7EB13
:100500000507103F07F01F0BCBF120060CFA0BFB81
:100510002CFA06F644BFB3460026202FA4BF5E4641
:100520004FF0000B5BEA060C08BF4FF0010B19EB14
:100530000B09ABFB027C48EB0608C01B06FB02CC98
:100540000BFB03CC71EB0C01C1E70B4602464146A5
:100550004846BDE8F08B13B54FF000004FF00001A6
:10056000AFF30080BDE81C40704710B5431C02E0AB
:1005700010F8011B71B18107FAD14FF0013202C8A6
:100580008C1A8C4314EAC211F9D0C01A0A0603D09F
:10059000C01E10BDC01A10BD0A0401D0801E10BDBF
:1005A0000902FCD0401E10BD032A40F2308010F03A
:1005B000030C00F0158011F8013BBCF1020F6244FE
:1005C00098BF11F801CB00F8013B38BF11F8013B8F
:1005D000A2F1040298BF00F801CB38BF00F8013B3C
:1005E00011F0030300F02580083AC0F0088051F8AC
:1005F000043B083A51F804CBA0E80810F5E7121DB7
:100600005CBF51F8043B40F8043BAFF30080D207D5
:1006100024BF11F8013B11F801CB48BF11F8012BA1
:1006200024BF00F8013B00F801CB48BF00F8012BC4
:10063000704710B5203AC0F00B80B1E81850203A4E
:10064000A0E81850B1E81850A0E81850BFF4F5AF72
:100650005FEA027C24BFB1E81850A0E8185044BFFC
:1006600018C918C0BDE810405FEA827C24BF51F869
:10067000043B40F8043B08BF7047D20728BF31F85D
:10068000023B48BF11F8012B28BF20F8023B48BFAE
:1006900000F8012B704702F0FF0343EA032242EA0D
:1006A000024200F037B84FF0000200B513469446FE
:1006B0009646203922BFA0E80C50A0E80C50B1F1BA
:1006C0002001BFF4F7AF090728BFA0E80C5048BFCE
:1006D0000CC05DF804EB890028BF40F8042B08BF6C
:1006E000704748BF20F8022B11F0804F18BF00F868
:1006F000012B704770477047704710B500F02AF81B
:10070000006810BD10B5044600F024F8046010BD68
:100710004FF000020429C0F0128010F0030C3FF4E7
:10072000C4AFCCF1040CBCF1020F18BF00F8012BD0
:10073000A8BF20F8022BA1EB0C01FFF7B6BF5FEAC0
:10074000C17C24BF00F8012B00F8012B48BF00F842
:10075000012B704700487047FC8600201FB584B00D
:1007600000200A9C06AB04AA02A90094AFF3008003
:1007700018B1DDE9020108B010BD0348204000F0C7
:1007800037F800200146F6E70000207C004870475B
:10079000FC8600207546FFF7F9FFAE460500694666
:1007A000534620F00700854618B020B5FFF7CEFD70
:1007B000BDE820404FF000064FF000074FF0000862
:1007C0004FF0000B21F00701AC46ACE8C009ACE8E3
:1007D000C009ACE8C009ACE8C0098D46704710B547
:1007E0000446AFF300802046BDE81040FFF739BD56
:1007F00010B500F009F8BDE81040AFF30080002804
:1008000001D000F057B8704710B5022803D041015D
:1008100003D50DA112E0002010BD010101D50FA1EB
:100820000CE0C10001D511A108E0810001D512A1A1
:1008300004E0400001D513A100E0002115A000F064
:100840003FF8012010BD0000496E76616C6964209C
:100850004F7065726174696F6E000000446976695B
:100860006465204279205A65726F00004F76657288
:10087000666C6F7700000000556E646572666C6F81
:1008800077000000496E6578616374205265737566
:100890006C7400005349474650453A2041726974D0
:1008A000686D6574696320657863657074696F6EDF
:1008B0003A20000001491820ABBEFEE726000200E6
:1008C00070B505460C460A2000E06D1C00F011F8DA
:1008D00035B128780028F8D102E0641C00F009F84E
:1008E00014B120780028F8D1BDE870400A20AFF399
:1008F000008008B569468DF800000320ABBE08BD36
:1009000070470000B7EE000A80ED000A9FED060A6E
:1009100080ED010A9FED040A80ED020A9FED020AB4
:1009200080ED030A70470000000000002DE9F0414F
:100930002DED028B0746B0EE408A0C4615461E464A
:10094000D6ED024AB0EE644AD6ED014AF0EE643AC2
:10095000D6ED004AB0EE643AD5ED024AF0EE642AD4
:10096000D5ED014AB0EE642AD5ED004AF0EE641AE6
:10097000D4ED024AB0EE641AD4ED014AF0EE640AF6
:10098000D4ED004AB0EE640A384608F049FEBDECEA
:10099000028BBDE8F08100BF0EF0ACF9012010F031
:1009A0009BFDF9E700B555480088401C5349088075
:1009B00053480088401C524908805248007828B9A2
:1009C00000204E4908804E49088000BD4D480078FF
:1009D000082841D2DFE800F08E040506078E417C2E
:1009E00000BF00BF00BF002045490880464800788E
:1009F000012803D11420454908800AE044480078C2
:100A0000022806D1414800880A2802DB06203F4917
:100A100008803E48008818B900200DF027F91BE037
:100A20003A4800884FF4FA7191FBF0F080B23349F4
:100A3000098891FBF0F200FB121080B22F49088068
:100A400050B934480078012806D130480088002881
:100A500002DD01200DF00AF94CE000202749088052
:100A60002D48807838B12D48007820B901202B49D5
:100A700008702B490870254800884FF4FA7191FBE3
:100A8000F0F080B21E49098891FBF0F200FB1210D1
:100A900080B21B490880D0B91F484078B8B11F48C0
:100AA0000078012810D11E48007800280CDD174876
:100AB000008802280BDB01200DF0D8F818480078D8
:100AC000401E1749087002E000201449087011E028
:100AD0000A480088322190FBF1F201FB120080B23B
:100AE0000649088028B90B480078012801D10DF08B
:100AF000BDF800BF00BF00BF67E70000DC050020B5
:100B0000DE050020D7040020E5050020DA050020DE
:100B1000D8040020E4050020A08400204106002025
:100B20004006002010B501221021024804F045FEC5
:100B300010BD00000000024010B500221021024844
:100B400004F03BFE10BD00000000024070470000B2
:100B500010B501221146024804F02FFE10BD00001E
:100B60000004024010B500220121024804F025FED5
:100B700010BD00000004024010B543781B021BB2F8
:100B80000478234300EE103AB8EEC01A1C4BD3EDA4
:100B9000001A21EE211A81ED001AC3781B021BB244
:100BA0008478234300EE103AB8EEC01A144BD3ED0C
:100BB000001A21EE211A81ED011A43791B021BB2A2
:100BC0000479234300EE103AB8EEC01A0C4BD3ED73
:100BD000001A21EE211A81ED021A037A1B04C4794E
:100BE00043EA04238479234300EE903AB8EE601A76
:100BF000DFED041A21EE211A82ED001A10BD00006B
:100C00004000002000401C42704710B504462046BA
:100C100010F062FC10BD10B5044620460FF0D6FC63
:100C200010BD00004278120212B203781A4300EE9F
:100C3000102AF8EEC00A144A92ED001A60EE810AFA
:100C4000C1ED000AC278120212B283781A4300EE94
:100C5000102AF8EEC00A0C4A92ED001A60EE810AE2
:100C6000C1ED010A4279120212B203791A4300EE71
:100C7000102AF8EEC00A044A92ED001A60EE810ACA
:100C8000C1ED020A704700004400002010B50024A6
:100C9000FFF75CFFFFF7B8FF0FF00AF810B144F060
:100CA000800402E00EF06AFF04430FF0F9F910B17E
:100CB00044F0400402E00FF079F90443204610BDEF
:100CC0002DE9FC4105460E46174600200090019094
:100CD000FFF732FF922000F0D1F806226946122079
:100CE00000F0ACF8FFF71EFF9DF80100000200B213
:100CF0009DF8001040EA010400EE104AB8EEC00A68
:100D00004C48D0ED000A20EE200A86ED000A9DF83E
:100D10000300000200B29DF8021040EA010400EE58
:100D2000104AB8EEC00A4348D0ED000A20EE200A6F
:100D300086ED010A9DF80500000200B29DF804103E
:100D400040EA010400EE104AB8EEC00A3948D0ED7E
:100D5000000A20EE200A86ED020AFFF703FF0822B0
:100D60006946002000F06AF8FFF7F2FE9DF80000E7
:100D70000F2838D19DF80300000200B29DF8021040
:100D800040EA010400EE104AB8EEC00A2A48D0ED4D
:100D9000000A20EE200A85ED000A9DF805000002F9
:100DA00000B29DF8041040EA010400EE104AB8EECB
:100DB000C00A2148D0ED000A20EE200A85ED010A84
:100DC0009DF80700000200B29DF8061040EA0104F9
:100DD00000EE104AB8EEC00A1748D0ED000A20EE27
:100DE000200A85ED020AFFF7A7FEA22000F046F8D0
:100DF00002226946222000F021F8FFF793FE9DF8B9
:100E00000000C0009DF8011040EA6114B4F5806F45
:100E100002DBA4F5006004B200EE104AF8EEC00A4E
:100E2000B4EE001AB3EE070A00EE810A87ED000A5D
:100E3000BDE8FC81400000204400002070B506465B
:100E40000C46154646F0800000F018F806E05520E4
:100E500000F014F82070641C681EC5B2002DF6D195
:100E600070BD70B504460D4644F0800000F006F8F1
:100E7000552000F003F8287070BD000001B582B065
:100E80004FF47A70012301AA02A90090024805F0EC
:100E9000F8FE9DF804000EBDF00D002010B50246CE
:100EA0001378DB00547843EA6410B0F5806F02DBFE
:100EB000A0F5006318B200EE100AF8EEC00AB4EE16
:100EC000001AB3EE070A00EE810A81ED000A10BD98
:100ED00070B505460C462846FFF7D0FF2046FFF7C1
:100EE000CDFF70BD00BFFEE710B50821054806F034
:100EF00071FC002004490870488008728880C8800E
:100F000010BD0000E00F0020401900204748007885
:100F100020B1012809D0022848D13FE000204349F0
:100F2000488088800872C88079E040488088401CEA
:100F30003E4988800846C088012801D100200870F9
:100F40003A4989884FF4967291FBF2F000EBD07128
:100F50004910A0EB410139B93449097A21B98720F8
:100F60003249488001200872304989884FF49672CE
:100F700091FBF2F000EBD0714910A0EB4101012987
:100F80000BD12A49097A012907D100202749488035
:100F900008720846C088401CC88040E005202349EC
:100FA0004880002088800872C88038E01F48808808
:100FB000401C1E4988800846C088032801D10020B3
:100FC00008701A4989884FF4967291FBF2F000EB91
:100FD000D0714910A0EB410139B91449097A21B9FE
:100FE00087201249488001200872104989884FF4EF
:100FF000967291FBF2F000EBD0714910A0EB410129
:1010000001290BD10949097A012907D10020074993
:10101000488008720846C088401CC88000BF00BFD6
:101020000248408802490968C86370474019002097
:10103000E00F002010B5054803F0E0FE012002F0AB
:1010400015FB024803F046FC10BD00004C0D0020CB
:1010500010B5054803F018FF022002F007FB024814
:1010600003F038FC10BD0000740D002070B504467C
:101070000D460020206160616062A0610120E06196
:101080002062002020606060A060E0602146284669
:1010900003F0D0FA70BD000070B504460D46681E1E
:1010A000C6B206EB460101EB0611084A02EB8100CD
:1010B0002146FFF7DBFF204603F031FF206840693F
:1010C00040F002002168486170BD0000B0190020A6
:1010D000F8B506460C4617461D46094804604460AC
:1010E000002007498860C860084605616B463A469B
:1010F000304603F0F3F908B10020F8BD0120FCE709
:10110000DC1B00202DE9F04180460C4615461E46AA
:10111000069F200A0E4908704C70280A8870CD700E
:10112000300A08714E71380A8871CF714FF400701F
:101130000849086048600820086100208860C8608D
:101140000875054B024A404603F0C8F9BDE8F08136
:10115000F0020020881B0020000300202DE9F04150
:1011600080460C4615461E46069F200A0E4908700A
:101170004C70280A8870CD70300A08714E71380A98
:101180008871CF7140F2FF1008490860486008205C
:10119000086100208860C8600875054B024A404617
:1011A00003F09CF9BDE8F081F0020020881B0020CC
:1011B00000030020044890ED000ABCEEC00A10EEC7
:1011C000100A80B270470000E404002070B50446A5
:1011D0000D462878697840EA0120C0F30A00208093
:1011E0002088A0F5806000B220806878C010A978BF
:1011F00040EA4110C0F30A0060806088A0F580607A
:1012000000B26080A8788011E97840EA81002979ED
:1012100040EA8120C0F30A00A080A088A0F5806089
:1012200000B2A08028794010697940EAC110C0F36B
:101230000A00E080E088A0F5806000B2E080687974
:1012400000118008A0726879C0F30110E072A879DB
:10125000E97940EA012000B2A081287A697A40EA5F
:10126000012001B2E181A87AE97A40EA012001B2C5
:101270002182297BA174697BE174A87BE97B40EA28
:101280000120A082287C697C40EA0120C0F30A008A
:101290002081B4F90800142806DCB4F9080010F124
:1012A000140F01DB002020812089A0F5806000B2AE
:1012B0002081B4F90000142806DCB4F9000010F114
:1012C000140F01DB00202080B4F90200142806DC92
:1012D000B4F9020010F1140F01DB00206080B4F9B2
:1012E0000400142806DCB4F9040010F1140F01DB2B
:1012F0000020A080B4F90600142806DCB4F906002A
:1013000010F1140F01DB0020E08004F05DFA0A49BF
:1013100008600846006809490968401AB0F5FA7F74
:1013200007D98021064804F03FFA034800680349C2
:10133000086007F0BBFB70BD9400002098000020FF
:10134000001002400149087070470000FC040020B2
:1013500010B52DED0A8B0446B0EE408AF0EE608A9F
:1013600018EE100A13F064FD41EC1C0BB0EE4C0AB1
:10137000F0EE6C0A0EF058FBB0EE40AAF0EE60AA58
:1013800094ED000A10EE101A084613F051FD41ECDE
:101390001C0BB0EE4C0AF0EE6C0A0EF045FBB0EE02
:1013A00040BAF0EE60BA53EC1A2B51EC1B0B13F061
:1013B0003DFA41EC190B9FED510B53EC102B12F041
:1013C00025FF21D294ED000A10EE101A084613F002
:1013D0002FFD41EC1A0BB0EE4A0AF0EE6A0A0EF04D
:1013E00023FBB0EE409AF0EE609A9FED460B53EC73
:1013F000102B51EC190B13F0E4F805D2B1EE040AEE
:1014000028EE800AF0EE408A18EE100A13F010FD64
:1014100041EC1C0BB0EE4C0AF0EE6C0A0EF004FB33
:10142000B0EE40BAF0EE60BA94ED000A10EE101A79
:10143000084613F0FDFC41EC1C0BB0EE4C0AF0EE3C
:101440006C0A0EF0F1FAB0EE409AF0EE609A53ECAE
:101450001B2B51EC190B13F0E9F941EC1A0B9FED22
:10146000270B53EC102B13F0ACF805D2B2EE040AA4
:1014700028EE800AF0EE408A18EE900A13F0D8FCAD
:1014800041EC190B94ED000A30EE480A10EE101AE8
:10149000084613F0CDFC41EC1B0BB0EE4B0AF0EE0E
:1014A0006B0A0EF0C1FAB0EE40AAF0EE60AA53EC5F
:1014B000192B51EC1A0B12F0A9FE02D284ED008A0E
:1014C00019E094ED000AB4EEC80AF1EE10FA05DD59
:1014D00094ED000A30EE680A84ED000A94ED000AEB
:1014E000B4EEC80AF1EE10FA05D294ED000A30EE1F
:1014F000280A84ED000ABDEC0A8B10BD0000000034
:1015000000000000000000000000244010B5124858
:10151000007818B900201149087010BD0F480078F4
:1015200028B99FED0F0A0F4880ED000AF5E70B4838
:101530000078012804D0032805D0072809D105E048
:1015400002F0F2FB05E00CF069FC02E008F0C0FCE0
:1015500000BF00BF00BFE0E7D6040020D504002094
:1015600000000000F80400200948B0F84A000128F3
:1015700004DA0120064981F84C0003E00020044908
:1015800081F84C0000200249A1F84A007047000091
:10159000A084002010B50246002004E012F8013BB0
:1015A0004340044CE05C0B1EA1F10104A1B2F5D153
:1015B00010BD0000235F010810B50DF0A1FE09F079
:1015C000D7F9F3EE040AB7EE000A024807F04EFA24
:1015D00010BD0000E47F002010B509F0FFFA484874
:1015E0000078022820D1474890ED061AF0EE410A13
:1015F000454890ED001AB0EE410A444809F039F828
:10160000414880ED010A3F4890ED071AF0EE410A8B
:101610003D4890ED011AB0EE410A3D4808F0A2FFA6
:10162000394880ED020A69E035480078062820D163
:10163000344890ED061AF0EE410A334890ED001A56
:10164000B0EE410A334809F014F82F4880ED010A42
:101650002C4890ED071AF0EE410A2B4890ED011A44
:10166000B0EE410A2C4808F07DFF274880ED020AC1
:1016700044E023480078052820D1224890ED061A3E
:10168000F0EE410A204890ED001AB0EE410A2348DE
:1016900008F0EFFF1C4880ED010A1A4890ED071A88
:1016A000F0EE410A184890ED011AB0EE410A1C48CC
:1016B00008F058FF144880ED020A1FE0114890ED31
:1016C000061AF0EE410A104890ED001AB0EE410AF9
:1016D000104808F0CEFF0C4880ED010A094890ED53
:1016E000071AF0EE410A084890ED011AB0EE410ADF
:1016F000094808F037FF044880ED020A10BD0000D9
:10170000D804002004140020D87F0020B4800020DA
:10171000F4800020B4810020F4810020B4820020F5
:10172000F482002010B548480078022820D14748AC
:1017300090ED081AF0EE410A454890ED001AB0EE1F
:10174000410A44480DF0F7FE414880ED010A3F4848
:1017500090ED091AF0EE410A3D4890ED011AB0EE05
:10176000410A3D480DF060FE394880ED020A69E00B
:1017700035480078062820D1344890ED081AF0EE5C
:10178000410A334890ED001AB0EE410A33480DF09B
:10179000D2FE2F4880ED010A2C4890ED091AF0EE98
:1017A000410A2B4890ED011AB0EE410A2C480DF089
:1017B0003BFE274880ED020A44E0234800780528D4
:1017C00020D1224890ED081AF0EE410A204890ED11
:1017D000001AB0EE410A23480DF0ADFE1C4880ED22
:1017E000010A1A4890ED091AF0EE410A184890EDE6
:1017F000011AB0EE410A1C480DF016FE144880EDA7
:10180000020A1FE0114890ED081AF0EE410A104854
:1018100090ED001AB0EE410A10480DF08CFE0C4815
:1018200080ED010A094890ED091AF0EE410A0848D6
:1018300090ED011AB0EE410A09480DF0F5FD04489B
:1018400080ED020A10BD0000D8040020D81300204B
:10185000CC7F002034800020748000203481002060
:1018600074810020348200207482002000B52DEDA8
:10187000028B81B002F08AFD0DF05AFA8E48007892
:1018800008B38E4890ED000AB5EEC00AF1EE10FAEA
:1018900006D190ED040AB5EEC00AF1EE10FA0ED0B2
:1018A00087480068401E8649086010B10CF0A8F90E
:1018B00005E000208049087001208249087001B0CD
:1018C000BDEC028B00BD012001F0B8FE012802D062
:1018D0007D48007888BB0CF093F97C4809F006FA43
:1018E0007B4809F003FA7B4809F000FA7A4809F0CE
:1018F000FDF97A4809F0FAF9794809F0F7F97948D9
:1019000009F0F4F9784809F0F1F9784809F0EEF9AE
:10191000774809F0EBF9774809F0E8F9764809F0DB
:10192000E5F9764809F0E2F9754809F0DFF9002099
:101930007449087074490870C1E7FFE7734800787C
:10194000022816D05D4890ED030ADFED710A20EE03
:10195000200A704880ED000A584890ED040ADFED37
:101960006C0A20EE200A6C4880ED000A02206749CC
:101970000870082001F062FE012814D0102001F048
:101980005DFE01280FD001F067FAB1EE400AB0EE1B
:10199000408A01F079FAB1EE400AF0EE408AF0EEAA
:1019A000480A0CF0DDFC48480078012852D0042891
:1019B0007FD15A48407898B15848D0F8030000EEDB
:1019C000100AB5EEC00AF1EE10FA09D05348D0F86B
:1019D000070000EE100AB5EEC00AF1EE10FA03D1CE
:1019E00001204949087006E04C484078012802D19E
:1019F000002045490870FFF795FEFFF7EDFD4848C8
:101A000090ED020ABDEEC00A10EE100A00B200907E
:101A1000444890ED020ABDEEC00A10EE100A01B271
:101A200000231A464048FFF799FB244890ED030A2B
:101A3000DFED370A20EE200A364880ED000A1F4805
:101A400090ED040ADFED320A20EE200A324880EDE4
:101A5000000A2EE006F060FD06F038FD2E4890EDFD
:101A6000020ABDEEC00A10EE100A00B2009029482A
:101A700090ED020ABDEEC00A10EE100A01B200237A
:101A80001A462948FFF76AFB0C4890ED030ADFED80
:101A9000200A20EE200A254880ED000A074890ED34
:101AA000040ADFED1B0A20EE200A214880ED000A1F
:101AB00000BF00BF00BF02E78C0400200C13002011
:101AC00098040020E1040020D60400207483002044
:101AD000F48300203480002074800020B480002033
:101AE000F48000203481002074810020B481002023
:101AF000F48100203482002074820020B48200200F
:101B0000F482002078040020790400207004002072
:101B10008805B641D813002004140020A0840020BA
:101B2000D87F0020CC7F00204C0D00207C040020BA
:101B30008004002001490870704700009C000020CC
:101B400010B5024803F036FA10BD0000E011002085
:101B500010B5024803F02EFA10BD0000401200201C
:101B600010B5FE48C06C0068FD49884276D9FC4833
:101B700054380068F949C96C0968FA4A914201D1A0
:101B8000202169E0F549C96C0968F54A483A914253
:101B900001D1202160E0F149C96C0968F14A603245
:101BA000914201D1202157E0EC49C96C0968EC4A07
:101BB0001832914201D120214EE0E849C96C0968F0
:101BC000E84A1832914201D1C91445E0E349C96C91
:101BD0000968E34A303A914201D1C9143CE0DF4937
:101BE000C96C0968DF4A7832914201D1C91433E0E7
:101BF000DA49C96C0968DA4A3032914201D1C91414
:101C00002AE0D649C96C0968D64A3032914202D1DD
:101C10004FF4001120E0D149C96C0968D04A183A44
:101C2000914202D14FF4001116E0CC49C96C096809
:101C3000CC4A9032914202D14FF400110CE0C749D6
:101C4000C96C0968C64A4832914203D14FF4001169
:101C500002E003E04FF00061084070E1BF48C06C53
:101C60000068C049A831884276D9BD485838006814
:101C7000BA49C96C0968BB4A914201D1202169E087
:101C8000B649C96C0968B64A483A914201D1202147
:101C900060E0B249C96C0968B24A6032914201D130
:101CA000202157E0AD49C96C0968AD4A183291420C
:101CB00001D120214EE0A949C96C0968A94A18320E
:101CC000914201D1C91445E0A449C96C0968A44AEC
:101CD000303A914201D1C9143CE0A049C96C09686D
:101CE000A04A7832914201D1C91433E09B49C96CB2
:101CF00009689B4A3032914201D1C9142AE09749C0
:101D0000C96C0968974A3032914202D14FF40011F0
:101D100020E09249C96C0968914A183A914202D16F
:101D20004FF4001116E08D49C96C09688D4A903254
:101D3000914202D14FF400110CE08849C96C096846
:101D4000874A4832914203D14FF4001102E003E088
:101D50004FF000610840F2E08048C06C00688149A3
:101D60004831884276D97F48103840687B49C96C31
:101D700009687C4A914201D1202169E07749C96C08
:101D80000968774A483A914201D1202160E07349BD
:101D9000C96C0968734A6032914201D1202157E031
:101DA0006E49C96C09686E4A1832914201D12021EE
:101DB0004EE06A49C96C09686A4A1832914201D1F9
:101DC000C91445E06549C96C0968654A303A9142D1
:101DD00001D1C9143CE06149C96C0968614A783293
:101DE000914201D1C91433E05C49C96C09685C4A6D
:101DF0003032914201D1C9142AE05849C96C0968AE
:101E0000584A3032914202D14FF4001120E0534938
:101E1000C96C0968524A183A914202D14FF4001134
:101E200016E04E49C96C09684E4A9032914202D17F
:101E30004FF400110CE04949C96C0968484A48321E
:101E4000914203D14FF4001102E003E04FF0006132
:101E5000084074E04348103800684049C96C09687C
:101E6000404A914201D1202168E03C49C96C09688F
:101E70003B4A483A914201D120215FE03749C96C81
:101E80000968384A6032914201D1202156E0334935
:101E9000C96C0968324A1832914201D120214DE0C3
:101EA0002E49C96C09682F4A1832914201D1C914D0
:101EB00044E02A49C96C0968294A303A914201D163
:101EC000C9143BE02549C96C0968264A7832914219
:101ED00001D1C91432E02149C96C0968204A303265
:101EE000914201D1C91429E01C49C96C09681D4AF5
:101EF0003032914202D14FF400111FE01749C96CF2
:101F00000968174A183A914202D14FF4001115E0BE
:101F10001249C96C0968134A9032914202D14FF4B8
:101F200000110BE00D49C96C09680D4A4832914215
:101F300002D14FF4001101E04FF000610840002889
:101F40006FD00648C06C0068054988427BD90348B9
:101F5000C06C00680349884208D105E0F00D0020FC
:101F60005864024010600240202068E0FE48C06CC7
:101F70000068FE49884201D1202060E0FA48C06C28
:101F80000068FB49884201D1202058E0F648C06C27
:101F90000068F6496031884201D120204FE0F248C4
:101FA000C06C0068F2494839884201D1C01446E04B
:101FB000ED48C06C0068ED491831884201D1C01469
:101FC0003DE0E948C06C0068E9491831884201D118
:101FD000C01434E0E448C06C0068E44978318842B9
:101FE00001D1C0142BE0E048C06C0068E0493039F2
:101FF000884202D14FF4001021E0DB48C06C006839
:10200000DA493031884202D14FF4001017E0D64847
:10201000C06C0068D6493031884204D14FF40010BA
:102020000DE0DFE10FE0D048C06C0068CF4990318F
:10203000884202D14FF4001001E04FF00060CB491C
:10204000091F08606AE1C848C06C0068C849483187
:10205000884274D9C448C06C0068C5496039884258
:1020600001D1202066E0C048C06C0068BF498842AA
:1020700001D120205EE0BC48C06C0068BC498842A9
:1020800001D1202056E0B848C06C0068B7496031E3
:10209000884201D120204DE0B348C06C0068B449AB
:1020A0004839884201D1C01444E0AF48C06C006890
:1020B000AE491831884201D1C0143BE0AA48C06C37
:1020C0000068AB491831884201D1C01432E0A648FB
:1020D000C06C0068A5497831884201D1C01429E05C
:1020E000A148C06C0068A2493039884202D14FF43F
:1020F00000101FE09C48C06C00689C493031884249
:1021000002D14FF4001015E09748C06C0068984960
:102110003031884202D14FF400100BE09248C06C7D
:10212000006892499031884202D14FF4001001E0DA
:102130004FF000608D4908390860EFE0FFE78A48FA
:10214000C06C00688A491839884274D98648C06CC6
:10215000006887496039884201D1202066E08248C2
:10216000C06C00688149884201D120205EE07E4831
:10217000C06C00687E49884201D1202056E07A4830
:10218000C06C006879496031884201D120204DE05F
:102190007548C06C006876494839884201D1C0143E
:1021A00044E07148C06C006870491831884201D120
:1021B000C0143BE06C48C06C00686D49183188421F
:1021C00001D1C01432E06848C06C006867497831BA
:1021D000884201D1C01429E06348C06C006864499A
:1021E0003039884202D14FF400101FE05E48C06CC5
:1021F00000685E493031884202D14FF4001015E08A
:102200005948C06C00685A493031884202D14FF4B5
:1022100000100BE05448C06C00685449903188426B
:1022200002D14FF4001001E04FF0006050497039C6
:10223000C86073E0FFE74C48C06C00684C496039E7
:10224000884201D1202066E04748C06C00684749B9
:10225000884201D120205EE04348C06C00684449B8
:10226000884201D1202056E03F48C06C00683F49B9
:102270006031884201D120204DE03B48C06C0068AD
:102280003B494839884201D1C01444E03648C06C0B
:10229000006836491831884201D1C0143BE0324809
:1022A000C06C006832491831884201D1C01432E054
:1022B0002D48C06C00682D497831884201D1C01486
:1022C00029E02948C06C006829493039884202D188
:1022D0004FF400101FE02448C06C006823493031DF
:1022E000884202D14FF4001015E01F48C06C00680E
:1022F0001F493031884202D14FF400100BE01A48D8
:10230000C06C006819499031884202D14FF4001026
:1023100001E04FF000601649703988601548007878
:1023200000F0020078B11348007820F00200114953
:1023300008700846007840F0040008700122114639
:102340000D4803F03AFA0D48007800F00200E0B1C1
:102350000A48007820F00200084908700846007812
:1023600040F0040008700BE0F00D00201064024003
:10237000706002402D030020000402402E03002064
:1023800001221021184803F018FA1848007800F0CC
:10239000020078B11548007820F002001349087057
:1023A0000846007840F004000870012210210E4811
:1023B00003F003FA0EF07AFC0D48007800F00400F8
:1023C00080B10B48007820F00400094908700846E5
:1023D000007840F0080008700648006840F00100EE
:1023E0000449086010BD0000000002402F030020D7
:1023F0002D030020103C01400146087810381823B6
:10240000B0FBF3F20848805CC865032A05D9086868
:102410006FF30900001D886503E008686FF3090089
:102420008865886D704700003B6001080146002008
:102430008A6A8B69CBB932B1012A0DD0022A03D046
:10244000032A10D10EE000BFCB6A03F08073B3F112
:10245000807F00D1012007E0CB6AB3F1C07F00D1BB
:10246000012001E000E000BF34E08B69B3F5005FBC
:102470001AD132B1012A07D0022A03D0032A11D17E
:102480000AE000BF01200EE0CB6A03F08073B3F1D5
:10249000807F00D1012006E0CB6AB3F1C07F00D17C
:1024A000012000E000BF15E032B1012A05D0022A68
:1024B00004D0032A0CD103E000BF00BF012008E0D4
:1024C000CB6A03F08073B3F1807F00D1012000E07C
:1024D00000BF00BF704730B50468246824F480242E
:1024E00005682C60046863608468402C04D104682B
:1024F000A2600468E16003E00468A1600468E2602F
:1025000030BD000010B501F081FF00EE100AB8EEFA
:10251000C00ADFEDF70A20EE200AF64880ED000A37
:1025200001F07AFF00EE100AB8EEC00AB1EE400AE0
:10253000DFEDF10A20EE200AEE4880ED010AEF48B7
:1025400090ED000AEB4880ED040AED48007803287E
:1025500074D10121002001F0CBFE00B3E8480078DF
:10256000022802D16FF0950000E0962000EE100ADC
:10257000B8EEC00ADF4880ED030A0121052001F012
:10258000B7FE10B19FEDDF0A01E0B7EE000AD948AF
:10259000D0ED030A20EE200A80ED030A32E001218B
:1025A000084601F0A5FE40B3D5480078022802D1C4
:1025B0006FF0950000E0962000EE100AB8EEC00A19
:1025C000CC4880ED030A0121052001F091FE10B1F5
:1025D0009FEDCC0A01E0B7EE000AC648D0ED030A31
:1025E00020EE200A80ED030A90ED030AFFEE000AB8
:1025F00020EE200A80ED030A04E09FEDC30ABD48E7
:1026000080ED030A0121022001F072FE48B3BC48AC
:102610000078022802D16FF0950000E0962000EECD
:10262000100AB8EEC00AB34880ED020A0121052065
:1026300001F05EFE18B19FEDB30A02E03DE0B7EE97
:10264000000AAC48D0ED020A20EE200A80ED020A12
:1026500090ED020AFFEE000A20EE200A80ED020A49
:10266000C8E10121032001F043FE00B3A448007833
:10267000022802D16FF0950000E0962000EE100ACB
:10268000B8EEC00A9B4880ED020A0121052001F046
:102690002FFE10B19FED9B0A01E0B7EE000A9548AE
:1026A000D0ED020A20EE200A80ED020AA2E19FEDA1
:1026B000960A904880ED020A9CE19448007801282F
:1026C00074D10121002001F013FE00B38C48007882
:1026D000022801D18E4801E04FF4257000EE100A67
:1026E000B8EEC00A834880ED030A0121052001F0FD
:1026F000FFFD10B19FED830A01E0B7EE000A7D48AF
:10270000D0ED030A20EE200A80ED030A32E0012119
:10271000084601F0EDFD40B379480078022801D168
:102720007B4801E04FF4257000EE100AB8EEC00AB5
:10273000704880ED030A0121052001F0D9FD10B198
:102740009FED700A01E0B7EE000A6A48D0ED030A77
:1027500020EE200A80ED030A90ED030AFFEE000A46
:1027600020EE200A80ED030A04E09FED670A61482D
:1027700080ED030A0121022001F0BAFD48B3604850
:102780000078022801D1624801E04FF4257000EE84
:10279000100AB8EEC00A574880ED020A0121052050
:1027A00001F0A6FD18B19FED570A02E03DE0B7EE3B
:1027B000000A5048D0ED020A20EE200A80ED020AFD
:1027C00090ED020AFFEE000A20EE200A80ED020AD8
:1027D00010E10121032001F08BFD00B3484800788F
:1027E000022801D14A4801E04FF4257000EE100A9A
:1027F000B8EEC00A3F4880ED020A0121052001F031
:1028000077FD10B19FED3F0A01E0B7EE000A3948AD
:10281000D0ED020A20EE200A80ED020AEAE09FEDE8
:102820003A0A344880ED020AE4E00121002001F078
:102830005FFD50B332480078022801D1344801E0EE
:102840004FF4257000EE100AB8EEC00A314880ED52
:10285000000A0121052001F04BFD10B19FED290A6E
:1028600001E0B7EE000A2B48D0ED000A20EE200A66
:1028700080ED000A2848D0ED000A264890ED000AB5
:102880001C480C30FEF764FD4DE00121084601F0C4
:102890002FFD60B31A480078022801D11C4801E0DE
:1028A0004FF4257000EE100AB8EEC00A194880ED0A
:1028B000000A0121052001F01BFD10B19FED110A56
:1028C00001E0B7EE000A1348D0ED000A20EE200A1E
:1028D00080ED000A1048D0ED000A0E4890ED000A85
:1028E000B1EE400A03480C30FEF732FD1BE015E064
:1028F000CDCC4C3DD48600200AD7233CF8040020E0
:10290000D5040020CDCCCC3D000000000405002003
:102910006CFDFFFF7C060020800600201FED060AEC
:102920009A4880ED030A0121022001F0E1FC60B326
:1029300097480078022801D1964801E04FF42570AD
:1029400000EE100AB8EEC00A934880ED000A01219B
:10295000052001F0CDFC10B11FED160A01E0B7EE25
:10296000000A8D48D0ED000A20EE200A80ED000A12
:102970008A48D0ED000A884890ED000AB1EE400A7E
:1029800082480830FEF7E4FC34E00121032001F026
:10299000AFFC50B37E480078022801D17D4801E0A9
:1029A0004FF4257000EE100AB8EEC00A7A4880EDA8
:1029B000000A0121052001F09BFC10B11FED2F0A38
:1029C00001E0B7EE000A7448D0ED000A20EE200ABC
:1029D00080ED000A7148D0ED000A6F4890ED000AC2
:1029E0006A480830FEF7B4FC04E01FED390A674876
:1029F00080ED020A01210B2001F07AFC30B10220A7
:102A00000BF056F906200BF0EFF805E006200BF06E
:102A10004FF901200BF0E8F801210E2001F068FCCD
:102A200048B100205E49087005200BF041F90620EE
:102A30000BF082F814E05B48808AB0F5804F0FD02D
:102A40005748007860B901205549087006200BF0FE
:102A50002FF955480078062802D101200BF06CF8B8
:102A60000121042001F044FC30B103200BF0BCF83C
:102A700001204E49087008E04C480078012804D134
:102A80000BF0B2F80020494908700221062001F03D
:102A90002FFC18B101204649087002E0002044498B
:102AA000087002210D2001F023FC18B10120FEF76F
:102AB00049FC02E00020FEF745FC0021102001F057
:102AC00017FC68B13B48007850B93B4800880028A3
:102AD00006DD00203949087001200BF0C7F80FE02F
:102AE0000221102001F004FC38B13348008800288E
:102AF00003DD01203149087002E000202F490870F1
:102B00000121052001F0F4FB40B10121082001F072
:102B1000EFFB58B1002006F067FD07E00121082017
:102B200001F0E6FB10B1012006F05EFD0121052059
:102B300001F0DEFB40B10121072001F0D9FB58B1C3
:102B400000200AF0F9FF07E00121072001F0D0FB87
:102B500010B101200AF0F0FF0121112001F0C8FBA3
:102B600018B104200BF046F802E001200BF042F807
:102B700001210F2001F0BCFB18B1012010490870A1
:102B800002E000200E49087010BD0000D48600202D
:102B9000D50400206CFDFFFF7C060020800600208D
:102BA0008906002034130020D7040020840600206A
:102BB000E5050020A8860020DA050020E4050020B5
:102BC0007606002010B52DED068B8E48007808287B
:102BD0004CD2DFE800F09404054C4B4B93CC00BF83
:102BE00001F0BCFB044611F0D9FA41EC190B9FED42
:102BF000860B53EC102B11F045FB41EC180B10F039
:102C00000DFE8349086001F0AFFB044611F0C6FADF
:102C100041EC1A0B9FED7F0B53EC102B11F032FBA4
:102C200041EC190B9FED7D0B53EC102B11F08AF842
:102C300041EC180B10F0F2FD7549486001F09AFB69
:102C400000EE100AB8EEC00A714880ED020A01F0E9
:102C500097FB00EE100AB8EEC00A6D4880ED030A3B
:102C6000704890ED000A6A4880ED040ABBE001F06C
:102C700075FB044611F092FA41EC190B9FED620BC3
:102C800053EC102B11F0FEFA41EC180B10F0C6FDBE
:102C90005F49086001F068FB044611F07FFA41ECDF
:102CA0001A0B9FED5C0B53EC102B11F0EBFA41EC7F
:102CB000190B9FED5A0B53EC102B11F043F841EC1C
:102CC000180B10F0ABFD5249486001F053FB00EEC9
:102CD000100AB8EEC00A4E4880ED020A01F050FB1F
:102CE00000EE100AB8EEC00A494880ED030A4D48CC
:102CF00090ED000A464880ED040A74E000BF01F040
:102D00002DFB044611F04AFA41EC190B9FED3E0BE6
:102D100053EC102B11F0B6FA41EC180B10F07EFDBD
:102D20003B49086001F020FB044611F037FA41EC02
:102D30001A0B9FED380B53EC102B11F0A3FA41EC5A
:102D4000190B9FED360B53EC102B10F0FBFF41ECF1
:102D5000180B10F063FD2E4948609FED330A0846BA
:102D600080ED040A80ED030A80ED020A3BE09FED4E
:102D70002E0A274880ED000A01F0F6FA044611F009
:102D80000DFA41EC1A0B9FED230B53EC102B11F0B5
:102D900079FA41EC190B9FED210B53EC102B10F03D
:102DA000D1FF41EC180B10F039FD1949486001F0D2
:102DB000E1FA00EE100AB8EEC00A154880ED020AEA
:102DC00001F0DEFA00EE100AB8EEC00A104880EDFD
:102DD000030A01F0C3FA00EE100AB8EEC00A0C486C
:102DE00080ED040A00BF00BF01F0CAFA10F5257F8C
:102DF00004D19FED0D0A064880ED030ABDEC068B59
:102E000010BD0000D5040020FCA9F1D24D62603F46
:102E1000D4860020333333333333D33F00000000F4
:102E200000A08440F80400200000000010B509480C
:102E3000007850B1012802D0022809D102E0FFF742
:102E4000C1FE05E0FFF75EFB02E008F062F800BF9C
:102E500000BF10BD9C000020014890ED010A7047A2
:102E6000D4860020014890ED040A7047D4860020E3
:102E7000014890ED020A7047D4860020014890ED89
:102E8000030A7047D4860020014890ED000A70477D
:102E9000D486002010B501F015FB012804D00228CB
:102EA00072D0032871D188E101F012FB012804D00F
:102EB00002286BD0032816D116E0FD4800780228BE
:102EC0000ED001200AF096FE01200AF08DFE0020AF
:102ED0000AF032FE06200AF0EBFE002006F084FB2A
:102EE0000220FEF727FE66E1F1480078012805D0B0
:102EF0000120FEF71FFE00200AF01EFE01200AF04E
:102F000073FE04200AF076FE06200AF0D1FE01F0DE
:102F100067FAE84988421BDCE7480078C0B9E7480F
:102F2000007828B9E6480078401CE549087004E0BC
:102F3000E3480078401EE2490870E14800783C28E8
:102F400002DCDF48007878B90120DB4908700BE02B
:102F500001F046FA10F1820F06DBD748007801280D
:102F600002D10020D4490870D54800783C282ADDD9
:102F70000AF0A4FE192818D009DC0F280CD012285A
:102F80000ED016281AD10FE00BE24EE24FE01E28B9
:102F90000FD04B2812D10DE001200AF0CDFD11E039
:102FA00002200AF0C9FD0DE000BF03200AF0C4FDB5
:102FB00008E000BF04200AF0BFFD03E001200AF092
:102FC000BBFD00BF05E0BE48007810B900200AF044
:102FD000B3FD01F005FA002815DD01F001FAB0F5A6
:102FE000A57F10DAB748006868B9B748008800289C
:102FF00009DD0120B34908600020B44908700120B0
:103000000AF034FE05E001F0EBF910B90020AD49FB
:10301000086001F0E5F940F27621884203DB0120E7
:10302000AA49087002E00020A8490870C3E0A0483F
:103030000078012805D00120FEF77CFD00200AF071
:103040007BFD06200AF0D0FD04200AF0D3FD01F03C
:1030500097F998491439884203DC05200AF028FEC4
:1030600002E002200AF024FE01F0BAF991498842F8
:103070001BDC97480078C0B99048007828B9904880
:103080000078401C8E49087004E08D480078401E8E
:103090008B4908708A4800783C2802DC8848007810
:1030A00078B901208A4908700BE001F099F910F114
:1030B000820F06DB86480078012802D1002084496F
:1030C00008707F4800783C2827DD0AF0F7FD1928B2
:1030D00015D006DC0F2809D012280BD0162817D1DE
:1030E0000CE01E280FD04B2812D10DE001200AF071
:1030F00023FD11E002200AF01FFD0DE000BF0320B8
:103100000AF01AFD08E000BF04200AF015FD03E0F4
:1031100001200AF011FD00BF05E06948007810B9F0
:1031200000200AF009FD01F025F9002815DA01F068
:1031300021F910F16E0F10DD6248006868B962482D
:103140000088002809DD01205E49086000205F49F1
:10315000087001200AF08AFD05E001F00BF910B9B2
:1031600000205849086001F005F95249884203DC03
:1031700001205649087002E000205449087001F00F
:103180002FF940F27621884203DB06200AF0D4FCB6
:1031900006E04A480078062802D100200AF0CCFC5C
:1031A00001F0EEF8B0F5257F02D10EF072F801E0E3
:1031B0000EF070F800BF00BF38E10120FEF7BAFC46
:1031C00001200AF017FD01F083F9012804D002283C
:1031D0006DD003285BD15BE001200AF005FD0120E2
:1031E0000AF008FD0AF06AFD192815D006DC0F2840
:1031F00009D012280BD0162817D10CE01E280FD0AA
:103200004B2812D10DE001200AF096FC11E00220BB
:103210000AF092FC0DE000BF03200AF08DFC08E0EC
:1032200000BF04200AF088FC03E001200AF084FCBF
:1032300000BF00BF01F0D4F8002815DD01F0D0F880
:10324000B0F5A57F10DA1F48006868B91E480088ED
:10325000002809DD01201B49086000201B49087077
:1032600001200AF003FD05E001F0BAF810B90020D2
:103270001449086001F0B4F840F27621884203DB7B
:1032800001201249087002E000201049087086E011
:1032900001200AF0AFFC00200AF04EFC01F0A0F87B
:1032A00010F1320F23DC03200AF09EFC12E036E01E
:1032B0009C0000208AFDFFFF65060020D704002047
:1032C0006406002068060020DA050020E4050020DE
:1032D0006606002001F084F85F49884203DC012083
:1032E000FEF730F806E00020FEF72CF802E001209F
:1032F0000AF07AFC5948007801280CD101F070F8E6
:1033000040F28A21884203DB0120FEF71BF802E02D
:103310000020FEF717F80020514908703FE0062012
:103320000AF062FC01200AF065FC01F059F810F186
:10333000640F0FDA07200AF0FFFB01F051F810F5D7
:10334000167F03DC01204749087006E0002045494C
:10335000087002E000200AF0EFFB01F041F8B0F540
:10336000167F15DD40480078012811D100203E4924
:1033700008703E480078012803D1002006F034F997
:103380000CE03A48007848B9012006F02DF905E034
:1033900001F026F810B901203349087000BF00BFC2
:1033A00044E00020FEF7C6FB07F0B3FD00203049E3
:1033B000087005F0E1FB01F013F810F5257F15D139
:1033C0002C480078012811D12B480088401C2A493C
:1033D000088008460088642814D107F0A8FD012061
:1033E000264908700020234908700BE000F0F8FF20
:1033F00040B900202049088001201E4908700020A3
:103400001E49087000F0ECFFB0F5167F03DB0120C9
:103410001B49087005E000F0E3FF10B900201849CF
:10342000087000200E49087000E000BF00BF01F0E6
:1034300049F8012803D000200D4908700AE001F086
:1034400041F8012806D101F043F8012802D10020FB
:103450000749087010BD000076FDFFFFD50400206D
:1034600077060020E405002070060020E605002015
:1034700064060020740600207206002075060020F5
:103480007806002001460A2900DC09B900207047AF
:103490002420214A10700B293CD2DFE801F03B06C2
:1034A0000B10151A1F24292F350005201A4A5071B8
:1034B0000620ECE70920184A50720A20E7E70D20A1
:1034C000154A50730E20E2E71120134A507412205F
:1034D000DDE71520104A50751620D8E719200E4A4E
:1034E00050761A20D3E71D200B4A50771E20CEE7D6
:1034F0002120094A82F821002220C8E72520064A17
:1035000082F825002620C2E72920034A82F82900F4
:103510002A20BCE70020BAE7E012002011B52DED0B
:10352000020B04460A2C00DC04B91EBD0B2C43D24E
:10353000DFE804F042060C12181E242A30363C0044
:1035400001221F49684600F0E1FB35E005221C49D5
:10355000684600F0DBFB2FE009221949684600F0BD
:10356000D5FB29E00D221649684600F0CFFB23E089
:1035700011221349684600F0C9FB1DE015221049CD
:10358000684600F0C3FB17E019220D49684600F0B9
:10359000BDFB11E01D220A49684600F0B7FB0BE0B5
:1035A00021220749684600F0B1FB05E025220449C5
:1035B000684600F0ABFB00BF00BF00BFB5E70000EE
:1035C000E012002000BF01201649098800EE101A01
:1035D000B8EE400AFFF7A2FF0420FFF753FF12499D
:1035E000087000201149087011E000BF1048006801
:1035F00000F040000028F9D00E480C490978405CE2
:103600000B49486009480078401C08490870074881
:103610000078054909788842E7DB30200DF05CFF2F
:10362000D1E70000DA0500201D0000201C0000206A
:1036300000100140E0120020704700000146B1F583
:10364000807F08D9084800680840884201D00120DE
:1036500070470020FCE704480068084008B90120D2
:10366000F6E70020F4E70000A0060020034931F847
:103670001010491C014A22F810107047E8860020FB
:1036800000B500231DE0104A32F813100F4A32F83B
:10369000130000F0DDFB38B1012098400C490968A7
:1036A00081430B48016006E0012098400849096801
:1036B0000843074908600020044921F81300581CFA
:1036C000C3B20A2BDFDB00BD8C060020E886002099
:1036D000A006002010B54FF47A7242F210719FEDEF
:1036E0000D1ADFED0D0A9FED0D0A0D4807F026FBC0
:1036F0004FF47A7242F21C519FED071ADFED090A6E
:103700009FED090A094807F019FB40F2DC5008490F
:10371000488110BDCDCC8C3F00000000CDCCCC3E0C
:10372000E48500206F12033C14AE3740248600204D
:10373000A886002010B59D4890ED060AB8EEC00A94
:103740009B4880ED010A9948B0F9000000EE100A8C
:10375000B8EEC00A964880ED030A9648007820B17A
:103760008020FFF76BFF012806D107F0ABFB00209C
:1037700091490870C88010BD90480088002803DC7B
:1037800000208D49C880F6E78B48B0F904007828FE
:103790006FDD05F057F9B8B387488088401C00B248
:1037A00085498880B1F90410782291FBF2F000EB92
:1037B000D0714910A0EB410169B97F49897801298D
:1037C00009D17D4880694FF6F87108447A498861CB
:1037D0000020887018E07849B1F90410782291FB34
:1037E000F2F000EBD0714910A0EB410101290BD19F
:1037F0007149897841B970488069A0F57F40F838EF
:103800006D49886101208870684989696A4A9269AE
:10381000881A002801DB014600E0414247F6FC72AD
:10382000914205DC0020644948708861888020E06E
:103830005F4890ED011AF0EE410A5F4890ED061ADC
:10384000B8EEC11AB0EE410A5D480AF043FA584892
:1038500080ED020A90ED031AF0EE410A90ED021A93
:10386000B0EE410A57480AF035FA514880ED040A93
:1038700081E75148C088002872DD50480088002840
:1038800003DC00204C49C88075E74B48007870B9CC
:1038900001204949087045488069C8600846416967
:1038A000C088C0EB403001EB8000434948613F498C
:1038B0008969414AD268881A002801DB014600E084
:1038C00041423D4AD288C2EB423241F6FF73C3EB1C
:1038D000820291420BDB00203749C8800870487093
:1038E00088610846C0880861002088800FE02F4961
:1038F0008969314AD268881A002801DB014600E054
:10390000414247F6FC7291FBF2F12B4A116105F03E
:1039100099F8A0B128488088401C00B226498880C8
:103920000846B0F9040078281DDD01204870887031
:103930001E488069A0F57F40F838886113E01E4872
:10394000B0F90400002806DD1B4880880A3800B260
:103950001949888007E000201749888003E0FFE7C5
:1039600000201549C880124890ED011AF0EE410A76
:10397000114890ED051AB8EEC11AB0EE410A104890
:103980000AF0A8F90A4880ED020A90ED031AF0EE59
:10399000410A90ED021AB0EE410A0A480AF09AF97B
:1039A000034880ED040A00BFE5E60000BC1B0020D0
:1039B00064860020D7040020A8860020DA050020B5
:1039C000E48500202486002010B5012001F0D6FDFA
:1039D00010BD10B5082001F0D1FD10BD10B51020AC
:1039E00001F0CCFD10BD10B5202001F0C7FD10BDC9
:1039F0007047000010B5002201B909E0012901D18A
:103A00000A0205E0022901D10A0201E04FF44072E6
:103A10000E4B1B6823F440730C4C236023461B6839
:103A20001343236023461B6823F0F80323602346D7
:103A30001B68022444EAC0042343044C2360234649
:103A40001B6843F48033236010BD0000103C02402B
:103A50001C48006800F40070B0B11A48006820F4F7
:103A600000701849086000BF0846006840F4006014
:103A700008600846006820F40060086000BF08463F
:103A8000006840F4007008600E48006800F4806030
:103A9000B0B10C48006820F480600A49086000BF9B
:103AA0000846006840F4805008600846006820F42A
:103AB0008050086000BF0846006840F480600860DD
:103AC00070470000003C02400A4A126822F440722B
:103AD000084B1A601A46126842F004021A601A462D
:103AE00012684FF4803343EA00231A43014B1A60F3
:103AF00070470000103C0240074A126822F44072EE
:103B0000054B1A601A4612681A601A46126842F08B
:103B100001021A6001707047103C024010B50D4957
:103B2000096821F440710B4C21602146096841F479
:103B3000407121602146096841F001012160026065
:103B400000BF00BF00BFBFF36F8F00BF00BF00BF4B
:103B5000436010BD103C0240084A126822F44072D3
:103B6000064B1A601A46126842F480721A601A46AE
:103B7000126842F001021A6001807047103C024056
:103B8000084A126822F44072064B1A601A461268FC
:103B900042F400721A601A46126842F001021A607A
:103BA00001607047103C02402348006800F010009C
:103BB00040B12248C06940F010002049C86110207F
:103BC0001D4908601C48006800F0200040B11B48F7
:103BD000C06940F008001949C861202016490860F2
:103BE0001548006800F0400040B11448C06940F03A
:103BF00004001249C86140200F4908600E4800685F
:103C000000F0800040B10D48C06940F002000B494F
:103C1000C8618020084908600748006800F0020079
:103C200040B10648C06940F020000449C861022044
:103C300001490860704700000C3C02406C1D0020E8
:103C400070B50446002500201449C86101F0BCFD90
:103C5000054609E0601C38B124B101F0B5FD401BF8
:103C6000A04201D9032070BD0D48006800F48030E7
:103C70000028EFD10A48006800F0010010B10120CF
:103C8000074908600648006800F0F20018B1FFF725
:103C90008BFF0120E7E70020E5E700006C1D002016
:103CA0000C3C024010B52DED068B0446204610F06A
:103CB00099FA41EC1A0B53EC1A2B9FED0A0B51ECBD
:103CC000100B10F03FF841EC190B9FED080B53EC73
:103CD000102B10F0D7FA41EC180B10F0F1F9BDECF5
:103CE000068B10BD000000000000F03F0000000047
:103CF00000408F4090ED000ABCEEC00A10EE101A92
:103D0000014AD172704700008805002030B5034693
:103D10001C788C545D78541C0D559D78941C0D5561
:103D2000DD78D41C0D5530BD10B52DED048B3D480C
:103D30000078012842D13C480088401C00B23A4932
:103D400008803A49081F06F0D1FA39498989A1F259
:103D50008B2010F023FA41EC190BB0EE490AF0EE7B
:103D6000690A0BF061FEB0EE408AF0EE608A9FEDCA
:103D7000310B53EC102B51EC180B10F047FA0CD808
:103D80002E480078401CC0B22C490870322804DD4F
:103D9000002024490870294908702348B0F9000020
:103DA000B0F57A7F15DD1F48007890B100201D49DD
:103DB00008701D490880214908700AE000201A494E
:103DC00008801F480078012803D11849081F06F011
:103DD0008DFA17488089A0F28B2000EE100AB8EE09
:103DE000C00A184880ED000A15480078012807D15C
:103DF000144890ED000ADFED140A30EE600A02E08C
:103E0000104890ED000A0F4880ED000AD0ED000A3E
:103E10009FED0E0A04F0A0F80A4880ED000ABDEC00
:103E2000048B10BD0405002006050020E08600205C
:103E3000C81A0020000000000000594008050020BA
:103E400077060020F804002000C07F440000000036
:103E500002468A4201DA012070470020FCE7000098
:103E600010B5FE48B0F9000000EE100AB8EEC00A26
:103E7000FB4880ED000AF948B0F9200000EE100A76
:103E8000B8EEC00AF64880ED010AF648007802282C
:103E90007ED1F548007800287AD0F44800780228CE
:103EA00003D1002004F068FE02E0012004F064FE6B
:103EB00009F004FF162852D004DC0F2807D012287E
:103EC00067D128E01E2872D04B2862D170E0022012
:103ED000E7490870E748D0ED000AE748B0F900006C
:103EE00000EE100AB8EEC00A30EE800ADC4880ED21
:103EF000040AE048D0ED000ADF48B0F9000000EE07
:103F0000100AB8EEC00A30EE800AB1EE400AD4487A
:103F100080ED050A94E00320D5490870D548D0ED1E
:103F2000010AD648B0F9000000EE100AB8EEC00A47
:103F300030EE800ACA4880ED040ACE48D0ED010A6E
:103F4000CE48B0F9000000EE100AB8EEC00A30EE1C
:103F5000800AB1EE400AC24880ED050A70E00420F4
:103F6000C3490870C348D0ED020AC548B0F9000043
:103F700000EE100AB8EEC00A30EE800AB84880EDB4
:103F8000040ABC48D0ED020ABD48B0F9000002E0C6
:103F900057E031E00BE000EE100AB8EEC00A30EE58
:103FA000800AB1EE400AAE4880ED050A48E000BF45
:103FB0000520AF490870AF48D0ED030AB148B0F909
:103FC000000000EE100AB8EEC00A30EE800AA448E5
:103FD00080ED040AA748D0ED030AAA48B0F9000012
:103FE00000EE100AB8EEC00A30EE800AB1EE400AC8
:103FF0009B4880ED050A23E002209D4908709D48FA
:10400000D0ED000A9C48B0F9000000EE100AB8EEAE
:10401000C00A30EE800A924880ED040A9548D0ED3F
:10402000000A9548B0F9000000EE100AB8EEC00A88
:1040300030EE800AB1EE400A894880ED050A00BFE3
:10404000CFE088480078012874D189480078062894
:1040500071D2DFE800F0AE9503274B718548D0EDB3
:10406000000A8548B0F9000000EE100AB8EEC00A58
:1040700030EE800A7A4880ED040A7E48D0ED000ACE
:104080007D48B0F9000000EE100AB8EEC00A30EE2C
:10409000800AB1EE400A724880ED050A012004F062
:1040A0006BFD91E07348D0ED010A7448B0F900004F
:1040B00000EE100AB8EEC00A30EE800A684880EDC3
:1040C000040A6C48D0ED010A6C48B0F9000000EE1B
:1040D000100AB8EEC00A30EE800AB1EE400A60481D
:1040E00080ED050A012004F047FD6DE06148D0ED48
:1040F000020A6348B0F9000000EE100AB8EEC00AE8
:1041000030EE800A564880ED040A5A48D0ED020A83
:104110005B48B0F9000000EE100AB8EEC00A30EEBD
:10412000800AB1EE400A4E4880ED050A012004F0F5
:1041300023FD49E049E046E04E48D0ED030A5148EE
:10414000B0F9000000EE100AB8EEC00A30EE800AA6
:10415000434880ED040A4748D0ED030A4948B0F9C6
:10416000000000EE100AB8EEC00A30EE800AB1EE90
:10417000400A3B4880ED050A012004F0FDFC23E0E5
:104180004148B0F9000000EE100AB8EEC00A344809
:1041900080ED040A3C48B0F90000404200EE100AED
:1041A000B8EEC00A2E4880ED050A012004F0E4FCB8
:1041B0000AE09FED360A2A4880ED040A9FED330A93
:1041C00080ED050A00E000BF0BE09FED300A2448B7
:1041D00080ED040A9FED2D0A80ED050A002004F011
:1041E000CBFC1F4890ED040ADFED290AB4EEE00A8B
:1041F000F1EE10FA02DD9FED260A02E0184890ED7C
:10420000040A174880ED040A90ED050ADFED200A44
:10421000B4EEE00AF1EE10FA02DD9FED1D0A02E0B5
:104220000F4890ED050A0E4880ED050A90ED001A42
:10423000F0EE410A90ED041AB0EE410A154804F080
:1042400099FB074880ED020A90ED011AF0EE410A51
:1042500090ED051AB0EE410A0F481FE0481B002000
:10426000908600209C000020D7040020D804002065
:10427000D8050020C4860020F0050020F2050020AB
:10428000F4050020F6050020F805002000000000DD
:104290000000FA4574850020AC85002004F06AFB1C
:1042A000014880ED030A10BD9086002010B542F24F
:1042B000107243F698219FED0B1AF6EE000AB3EE4A
:1042C000040A094804F032FB42F2107243F69821C6
:1042D0009FED041AF6EE000AB3EE040A034804F058
:1042E00025FB10BD0000000074850020AC85002077
:1042F0000246002321B1012908D0022912D10BE086
:104300000C48C068D04000F001030DE00948806807
:10431000D04000F0010307E006480069D04000F0FB
:10432000010301E0002300BF00BF0BB10120704773
:104330000020FCE74C130020014840787047000043
:10434000A0840020002004494978012901D10120DE
:1043500000E0002070470000D00400200148B0F9C0
:1043600000007047341300200148B0F90200704784
:10437000341300200148B0F90400704734130020C2
:104380000148B0F90600704734130020104890ED42
:10439000030ADFED100A20EE200A0F4880ED080A1C
:1043A0000B4890ED080A0C4880ED090A084890ED8A
:1043B000040ADFED080A20EE200A084880ED060A0C
:1043C000034890ED090A054880ED070A7047000090
:1043D0000C1300208805B641D813002004140020D7
:1043E0000148B0F9080070473413002070B5044646
:1043F0000D460EF0B9FF20602188A288891A88B284
:10440000FFF750FC28602068606070BD0148B0F97B
:104410000C007047341300200148B0F90E007047BB
:10442000341300200848806F41F27071884201DD2A
:10443000002004E00448806FA0F5B850703800EE0A
:10444000100AB8EEC00A7047C81A00200848806FEA
:1044500041F27071884201DD002004E00448806F61
:10446000A0F5B850703800EE100AB8EEC00A7047D8
:10447000C81A00200848806F41F25C21884201DAA6
:10448000002004E00448806FA0F590505C3800EEF6
:10449000100AB8EEC00A7047C81A00200848806F9A
:1044A00041F25C21884201DA002004E00448806F78
:1044B000A0F590505C3800EE100AB8EEC00A7047C4
:1044C000C81A00200148807A704700003413002089
:1044D0000148C07A7047000034130020F0B504464C
:1044E0000D461E4694F8207020688368A86800B9BD
:1044F00000E000BF012F01D0022F7CD103F08060CB
:1045000030B903F0006018B903F08050002873D070
:10451000C3F30161022905D9606A40F400006062BA
:104520000120F0BD012088403060A86860B9B5F86E
:1045300000C0E86840EA4C5C206800F5C07000EB01
:104540000110C0F800C00FE0D5E901C040EACC007E
:10455000D5F80CC040EA0C00D4F800C00CF5C07CC3
:104560000CEB011CCCF80000D5F810C0206800F559
:10457000C07000EB0110C0F804C0287D01280ED1E6
:10458000206800F5C07000EB0110406840F4807CAA
:10459000206800F5C07000EB0110C0F804C0D079AD
:1045A000000692F806C040EA0C4092F805C040EAC6
:1045B0000C2C10794CEA000C206800F5C07000EB60
:1045C0000110C0F80CC0D078000692F802C040EA92
:1045D0000C4092F801C040EA0C2092F800C040EA7A
:1045E0000C00D4F800C00CF5C07C0CEB011CCCF81E
:1045F0000800206801E016E00FE000F5C07000EB55
:104600000110006840F0010C206800F5C07000EB5C
:104610000110C0F800C0002083E7606A40F4001079
:10462000606201207DE7606A40F4802060620120C2
:1046300077E70000F0B504460A46216894F8205058
:10464000012D01D0022D7ED1424901F5007108688B
:1046500040F001000860086820F47C500860086899
:10466000566A40EA06200860107D00F01F0601200F
:1046700000FA06F3C8699843C861A1F50071D069D2
:10468000C8B9D1F80C029843C1F80C02908880B2E6
:10469000968940EA064601F51070576940F8376080
:1046A000108880B2168940EA064601F510705769F5
:1046B00000EBC7004660D069012819D1D1F80C027F
:1046C0001843C1F80C02908880B2168840EA06466A
:1046D00001F51070576940F83760908980B21689EB
:1046E00040EA064601F51070576900EBC7004660C6
:1046F000906928B9D1F804029843C1F8040204E093
:10470000D1F804021843C1F80402106928B9D1F89D
:1047100014029843C1F8140204E0D1F814021843BB
:10472000C1F81402106A012804D1D1F81C02184300
:10473000C1F81C02D1F8000220F00100C1F800020B
:104740000020F0BDFFE7606A40F480206062012035
:10475000F7E7000000640040704770B5044694F825
:104760002050012D01D0022D7DD151B92068C068A3
:1047700000F0030080B9606A40F40010606201201C
:1047800070BD2068006900F0030028B9606A40F439
:10479000001060620120F3E7206800F5D87000EB9C
:1047A0000110006800F004009060906840B9206833
:1047B00000F5D87000EB01100068400D106007E0B4
:1047C000206800F5D87000EB01100068C008506048
:1047D000206800F5D87000EB0110006800F00200BE
:1047E000D060206800F5D87000EB0110406800F040
:1047F0000F001061206800F5D87000EB01104068D0
:1048000000F47F40000A9061206800F5D87000EB4A
:1048100001104068000C5061206800F5D87000EB72
:10482000011080681870206800F5D87000EB011046
:10483000806800F47F40000A5870206800F5D87046
:1048400000EB0110806800F47F00000C9870206875
:1048500000F5D87000EB01108068000ED870206859
:1048600000F5D87000E02FE000EB0110C06818716F
:10487000206800F5D87000EB0110C06800F47F409C
:10488000000A5871206800F5D87000EB0110C0686C
:1048900000F47F00000C9871206800F5D87000EBE0
:1048A0000110C068000ED87131B92068C06840F0AE
:1048B00020002668F06005E02068006940F02000D4
:1048C0002668306100205BE7606A40F48020606207
:1048D000012055E72DE9F05F044600252068466970
:1048E0002068D0F80490206887682068D0F80CA071
:1048F0002068D0F810B02068D0F8188006F00100C9
:10490000002855D007F00100C0B10120216888605F
:1049100007F0020018B1204600F031FB0EE007F06E
:10492000040010B145F4006508E007F0080010B17C
:1049300045F4805502E0204600F020FB07F480702B
:10494000C8B14FF480702168886007F4007018B116
:10495000204600F016FB0EE007F4806010B145F42D
:10496000005508E007F4006010B145F4804502E00E
:10497000204600F005FB07F48030C8B14FF48030CA
:104980002168886007F4003018B1204600F0FBFA77
:104990000EE007F4802010B145F4004508E007F46C
:1049A000002010B145F4803502E0204600F0EAFA1C
:1049B00006F0080038B10AF0100020B145F4007587
:1049C00010202168C86006F0040040B10AF0080019
:1049D00028B108202168C860204600F00DFA06F0D2
:1049E000020038B12068C06800F0030010B1204612
:1049F00000F003FA06F0400038B10BF0100020B1CF
:104A000045F4806510202168086106F0200040B15F
:104A10000BF0080028B1082021680861204600F04A
:104A20007BFA06F0100038B12068006900F003003E
:104A300010B1204600F071FA06F4003040B109F0E0
:104A4000100028B1102021684860204600F066FA66
:104A500006F4803040B109F0080028B10820216830
:104A60004860204600F090FA06F4004088B309F050
:104A7000040078B306F4807020B108F0010008B19A
:104A800045F0010506F4007020B108F0020008B1FD
:104A900045F0020506F4806020B108F0040008B17A
:104AA00045F0040506F40060A0B108F0700088B17C
:104AB00008F07000402817D006DC10280BD0202802
:104AC0000CD0302819D10CE0502810D0602814D117
:104AD00010E01DE019E045F008050FE045F0100575
:104AE0000CE045F0200509E045F0400506E045F002
:104AF000800503E045F4807500E000BF00BF20683A
:104B0000806920F070002168886104202168486075
:104B10002DB1606A284360622046FFF71DFEBDE8A4
:104B2000F09F70B504460CB9012070BD94F82000C8
:104B300010B9204600F0B0F82068006820F00200AC
:104B40002168086000F040FE05460DE000F03CFEE4
:104B5000401B0A2808D9606A40F4003060620520D2
:104B600084F820000120E0E72068406800F002009F
:104B70000028EBD12068006840F00100216808603F
:104B800000F022FE05460DE000F01EFE401B0A2844
:104B900008D9606A40F400306062052084F8200083
:104BA0000120C2E72068406800F001000028EBD037
:104BB000207E012806D12068006840F0800021682E
:104BC000086005E02068006820F080002168086027
:104BD000607E012806D12068006840F0400021680E
:104BE000086005E02068006820F040002168086047
:104BF000A07E012806D12068006840F020002168CE
:104C0000086005E02068006820F020002168086046
:104C1000E07E012806D12068006820F0100021689D
:104C2000086005E02068006840F010002168086016
:104C3000207F012806D12068006840F00800216824
:104C4000086005E02068006820F00800216808601E
:104C5000607F012806D12068006840F004002168C8
:104C6000086005E02068006820F004002168086002
:104C7000D4E9020108432169084361690843616876
:104C8000491E08432168C86100206062012084F841
:104C90002000002049E7000010B586B0044614212A
:104CA00001A8FBF700FD4E492068884241D14D48DC
:104CB0000068401C4B4908600846006801280FD175
:104CC00000BF002000904848006840F0007046494E
:104CD00008600846006800F00070009000BF00BF48
:104CE00000BF0020009040481038006840F00800E5
:104CF0003D49103908600846006800F0080000903F
:104D000000BF00BF0320019002200290002003900A
:104D1000032004900920059001A9344800F03CFCD0
:104D200000220521142001F077F9142001F064F924
:104D300054E02F492068884250D100BF00200090E5
:104D40002948006840F080602749086008460068EC
:104D500000F08060009000BF00BF22480068401C47
:104D6000204908600846006801280FD100BF0020D4
:104D700000901D48006840F000701B49086008461C
:104D8000006800F00070009000BF00BF00BF00206E
:104D9000009015481038006840F0020012491039A0
:104DA00008600846006800F00200009000BF00BFE5
:104DB00060200190022002900020039003200490C4
:104DC0000920059001A90B4800F0E6FB002205210F
:104DD000402001F021F9402001F00EF906B010BD8D
:104DE000006400403800002040380240000C0240BF
:104DF00000680040000402407047704710B5044648
:104E00001C4B1D4A00212046FFF7A7FC1A480068EA
:104E1000A0F2052028B1032813D0B0F59E7F27D13A
:104E20001FE015480078401F144908701449134AC0
:104E3000127801EB42100BF0BDFD0320FEF716FCCB
:104E400016E00D480078401F0E4908700C490D4AC5
:104E5000127801EB42100BF0ADFD0420FEF706FCCA
:104E600006E0044805F0C6FF0920FEF7FFFB00BF7F
:104E700000BF10BDF8020020A01B0020040300208A
:104E8000C81A00200503002010B504461C4B1D4A1B
:104E900000212046FFF761FC1A480068A0F20120BB
:104EA00020B1012812D0022827D11FE01548007830
:104EB000401E154908701549134A127801EB42103B
:104EC0000BF002FD0520FEF7D1FB16E00D4800783F
:104ED000401E0F4908700D490D4A127801EB42102F
:104EE0000BF0F2FC0620FEF7C1FB06E009480BF0D0
:104EF00019FD0720FEF7BAFB00BF00BF10BD000080
:104F0000F8020020A01B002006030020481B002000
:104F100007030020BC1B002070477047704770B526
:104F2000044694F82000012822D1022084F82000B1
:104F30002068006820F001002168086000F044FC4F
:104F400005460DE000F040FC401B0A2808D9606AC5
:104F500040F400306062052084F82000012070BD1C
:104F60002068406800F001000028EBD16062F6E79D
:104F7000606A40F4002060620120F0E770477047EB
:104F800070477047704770477047014691F8350089
:104F9000022803D08020486501207047052081F851
:104FA00035000868006820F001000A6810600020E1
:104FB000F3E70000F8B50446002000908C48006834
:104FC0004FF41651B0FBF1F7A56D2E6894F85C1004
:104FD00008208840304098B12068006800F0040044
:104FE00070B12068006820F004002168086094F81F
:104FF0005C1008208840A860606D40F0010060658A
:1050000094F85C1001208840304068B12068406905
:1050100000F0800040B194F85C1001208840A86046
:10502000606D40F00200606594F85C1004208840D8
:10503000304068B12068006800F0020040B194F888
:105040005C1004208840A860606D40F0040060653A
:1050500094F85C1010208840304078B320680068D5
:1050600000F0080050B394F85C1010208840A8604D
:105070002068006800F4802080B12068006800F497
:10508000002028B9206CC8B12046216C884715E063
:10509000A06C98B12046A16C88470FE0206800689A
:1050A00000F4807028B92068006820F008002168AA
:1050B0000860206C10B12046216C884794F85C1081
:1050C000202088403040002865D02068006800F02B
:1050D000100000285FD094F85C1020208840A86061
:1050E00094F83500052828D12068006820F01600C3
:1050F000216808602068406920F0800021684861CC
:10510000206C08B9A06C28B12068006820F0080065
:105110002168086094F85C103F208840A86000BFB8
:10512000002084F8340000BF012084F83500206D91
:1051300010B12046216D8847F8BD2068006800F452
:10514000802080B12068006800F4002028B9606CDD
:1051500010B12046616C88471DE0E06BD8B1204655
:10516000E16B884717E02068006800F4807068B938
:105170002068006820F010002168086000BF00204F
:1051800084F8340000BF012084F83500E06B10B1D2
:105190002046E16B8847606D38B3606D00F0010018
:1051A000F0B1052084F835002068006820F0010087
:1051B0002168086000BF0098401C0090B84200D9E8
:1051C00005E02068006800F001000028F3D100BF6E
:1051D00000BF002084F8340000BF012084F83500AF
:1051E000E06C10B12046E16C884700BFA4E70000E6
:1051F000EC0300202DE9F0410446002500F0E4FA1C
:10520000074614B90120BDE8F081606A00B100BF13
:1052100000BF002084F8340000BF022084F835006D
:105220002068006820F00100216808600AE000F0B2
:10523000CBFAC01B052805D920206065032084F81F
:105240003500E0E72068006800F001000028EED19A
:105250002068056821480540D4E901010843E16858
:1052600008432169084361690843A1690843E1696A
:105270000843216A08430543606A042803D1D4E93E
:105280000B0108430543206805602068456925F047
:105290000705606A0543606A04280DD1A06A0543CA
:1052A000E06A48B12046FDF7C1F828B140206065AA
:1052B000012084F83500A6E7206845612046FDF707
:1052C0009BF8064694F85C103F208840B0600020B0
:1052D0006065012084F83500002094E73F8010F0DD
:1052E0002DE9F04104460D4616461F464FF00008D2
:1052F00000BF94F83400012802D10220BDE8F081FB
:10530000012084F8340000BF94F83500012811D141
:10531000022084F83500002060653B46324629466D
:105320002046FDF7D8F82068006840F001002168A9
:10533000086006E000BF002084F8340000BF4FF092
:1053400002084046DAE700002DE9F04104460E4627
:105350000127002500BF2548007E012802D1022038
:10536000BDE8F08101202149087600BF4CF25030A1
:10537000FEF766FC0746002F31D1401E30602068E2
:1053800001280FD1207C6168FEF79EFB4CF2503063
:10539000FEF756FC07461648006820F00400144942
:1053A00008601AE0A56812E0217C2846FEF722FB7F
:1053B0004CF25030FEF744FC07460D48006820F0E0
:1053C000FA000B4908600FB1356005E06D1CD4E9A7
:1053D00002100844A842E7D800BFFEF739FB00BF1F
:1053E00000200249087600BF3846B9E76C1D00204E
:1053F000103C02400348006840F00040014908604A
:1054000000207047103C02402DE9F04106460F464F
:1054100014461D464FF0010800BF1F48007E0128BA
:1054200002D10220BDE8F08101201B49087600BFAF
:105430004CF25030FEF704FC8046B8F1000F23D147
:1054400026B9E1B23846FEF757FB12E0012E04D12F
:10545000A1B23846FEF780FB0BE0022E04D12146B4
:105460003846FEF78DFB04E022462B463846FEF711
:1054700055FB4CF25030FEF7E3FB804607480068CE
:1054800020F001000549086000BF002002490876AD
:1054900000BF4046C6E700006C1D0020103C0240E3
:1054A00000200949096801F0004159B10749064A3D
:1054B0000C3A1160064911600349096801F0004186
:1054C00001B1012070470000103C024023016745F4
:1054D000AB89EFCD10B50446102C11D11F480078D0
:1054E00040F001001D4908701D48007840F001009F
:1054F0001B4908701B48007870B30BF0D7FB2BE0FA
:10550000202C0BD11848007840F001001649087093
:105510001448007800B30BF0C9FB1DE0082C06D13D
:105520001248007840F001001049087014E0012C86
:1055300012D10DF009FF01280ED00D490D48006869
:105540000DF0FAF80A48006830B120070A490860EF
:10555000BFF34F8FBFF36F8F10BD00002E030020ED
:105560002F030020310300202D03002030030020F2
:10557000A40300200803002004ED00E010B5044659
:1055800004480068204020B1024804602046FFF72C
:10559000A1FF10BD143C0140F8B502460B460025A2
:1055A000002400200021DCE0012606FA01F51E6837
:1055B00006EA0504AC4273D15E68012E08D05E682D
:1055C000022E05D05E68112E02D05E68122E13D115
:1055D00090684F000326BE40B0434F00DE68BE40D7
:1055E00030439060506801268E40B0431E79C6F368
:1055F00000168E4030435060D0684F000326BE40F6
:10560000B0434F009E68BE403043D0605E68022EBB
:1056100002D05E68122E13D1CF0802F1200656F890
:1056200027004E07F70E0F26BE40B0434F07FF0E70
:105630001E69BE403043CF0802F1200646F827001D
:1056400010684F000326BE40B0431E7906F00306E3
:105650004F00BE40304310605E6806F08056B6F1E1
:10566000805F7DD100BF00260096404E366846F42C
:1056700080463E4F3E603E46366806F480460096C1
:1056800000BF00BF3A4E8F0856F827008E07370F2D
:105690000F26BE40B043374EB24202D1002624E06E
:1056A0005EE0354EB24201D101261EE0334EB242D9
:1056B00001D1022619E0324EB24201D1032614E094
:1056C000304EB24201D104260FE02F4EB24201D13A
:1056D00005260AE02D4EB24201D1062605E02C4EE9
:1056E000B24201D1072600E008268F073F0FBE40D7
:1056F00030431F4E8F0846F82700264E3068A043DF
:105700005E6806F48036B6F5803F00D12043214E16
:105710003060361D3068A0435E6806F40036B6F58A
:10572000003F00D120431B4E361D3060361D3068CF
:10573000A0435E6806F48016B6F5801F00D12043B2
:10574000144E08363060361D3068A0435E6806F49B
:105750000016B6F5001F00D120430E4E0C36306007
:10576000491C1029FFF420AFF8BD00004438024066
:1057700008380140000002400004024000080240D6
:10578000000C0240001002400014024000180240C9
:10579000001C0240003C0140024613690B400BB163
:1057A000012000E00020704742690A408A4202D18D
:1057B0000A04826100E0816170470AB1816101E001
:1057C0000B048361704700000148006870470000C7
:1057D000F003002070B504460CB9012070BD94F8A8
:1057E0003D0028B9002084F83C00204600F006FB6C
:1057F000242084F83D002068006820F00100216822
:1058000008602068006840F4004021680860206853
:10581000006820F400402168086000F05BFD054648
:105820005C496068884206D85B48854201D2012005
:1058300007E0002005E05948854201D2012000E040
:105840000020012800D1C9E75548B5FBF0F62068D3
:10585000406820F03F003043216848604D4960684F
:10586000884201D8701C07E04FF4967070434FF4E3
:105870007A71B0FBF1F0401C2168096A21F03F0108
:1058800008432168086243496068884214D8681E4A
:1058900061684900B0FBF1F0401CC0F30B00042824
:1058A00001D204203DE0681E61684900B0FBF1F0C0
:1058B000401CC0F30B0034E0A06838B9681E616872
:1058C00001EB4101B0FBF1F0401C0AE0681E616889
:1058D00001EBC10202EB0111B0FBF1F0401C40F4FE
:1058E0008040C0F30B0008B901201AE0A06848B955
:1058F000681E616801EB4101B0FBF1F0401CC0F390
:105900000B000CE0681E616801EBC10202EB0111A3
:10591000B0FBF1F0401CC0F30B0040F4804040F4B9
:1059200000402168C9694CF6FF7291430843216821
:10593000C861D4E9070108432168096821F0C00162
:10594000084321680860D4E9031008432168896886
:1059500048F2FF329143084321688860D4E9050189
:1059600008432168C96821F0FF0108432168C86025
:105970002068006840F00100216808600020206471
:10598000202084F83D000020206384F83E0000BF02
:1059900024E70000A086010080841E0000093D006D
:1059A00040420F002DE9FC5F04460F4690469946A1
:1059B000DDE90CAB0E9EFFF707FF054694F83D00AE
:1059C000202870D119230122B0492046009502F009
:1059D0005DFC10B10220BDE8FC9F00BF94F83C00C4
:1059E000012801D10220F6E7012084F83C0000BF25
:1059F0002068006800F0010028B92068006840F0C5
:105A00000100216808602068006820F400602168B7
:105A10000860222084F83D00402084F83E000020E9
:105A20002064C4F824A0A4F82AB0608D208598488A
:105A3000E0624B46424639462046CDE9006502F019
:105A4000D7FA08B10120C6E7208D88B900BF002031
:105A5000019020684069019020688069019000BF32
:105A600000BF2068006840F400702168086040E0D2
:105A7000208D012818D12068006820F480602168FA
:105A8000086000BF002001902068406901902068F4
:105A90008069019000BF00BF2068006840F400707A
:105AA0002168086025E0EFE0208D022816D12068EB
:105AB000006820F48060216808602068006840F475
:105AC00000602168086000BF0020019020684069E4
:105AD000019020688069019000BF0AE000BF0020AB
